:100000000C944B000C946A000C946A000C946A00E7
:100010000C946A000C946A000C946A000C946A00B8
:100020000C946A000C946A000C946A000C946A00A8
:100030000C946A000C946A000C943E010C946A00C3
:100040000C946A000C946A000C946A000C946A0088
:100050000C946A000C946A000C946A000C946A0078
:100060000C946A000C946A000C946A000C946A0068
:100070000C946A000C946A000C946A000C946A0058
:100080000C946A000C946A000C946A0031363300B8
:10009000322E3131000011241FBECFEFD0E1DEBF80
:1000A000CDBF11E0A0E0B1E0E4EFF3E000E00BBF72
:1000B00002C007900D92A030B107D9F721E0A0E06F
:1000C000B1E001C01D92A231B207E1F70E946C00BD
:1000D0000C94F8010C940000CF93DF93CDB7DEB7FA
:1000E0000E94A7000E94B30064E081E00E94BB0070
:1000F00065E082E00E94BB0066E083E00E94BB00F6
:1001000080ED97E00E94950064E080E00E94BB00D3
:1001100065E080E00E94BB0066E080E00E94BB00DA
:1001200080ED97E00E949500DFCF20EA3FE004C019
:10013000F9013197F1F701970097D1F7089587E01A
:100140000E94D501909301018093000108958F9A38
:1001500097988AE090E00E949500979A84E690E054
:100160000E9495000895BF9AC79ABD9ABE9A8FEFD4
:1001700082B984BB0895482F80FF0BC095B321E05E
:1001800030E0062E02C0220F331F0A94E2F7922BB2
:100190000CC085B321E030E0062E02C0220F331FD1
:1001A0000A94E2F7922F9095982395BB41FF0AC0DD
:1001B00083B121E030E002C0220F331F6A95E2F7DD
:1001C000822B0AC023B181E090E002C0880F991F02
:1001D0006A95E2F78095822383B908959093090187
:1001E0008093080108958091080190910901089574
:1001F00090930301809302010895809102019091F0
:10020000030108959093050180930401089580915E
:10021000040190910501089510920B0110920A01BA
:10022000109207011092060110920C0110920D011C
:1002300010920E0110920F01109203011092020110
:1002400010920501109204018FEF93E09093090141
:1002500080930801C598C698BD9ABE9ABF9AC79A5E
:100260001DBC1CBC8AEA8FBD82E18EBD80E094E09B
:1002700097BD86BD87B7846087BF08951F920F9290
:100280000FB60F9211242F933F934F938F939F9309
:10029000AF93BF9380910A0190910B019C01285E5E
:1002A0003F4F30930B0120930A0143E0283E34076F
:1002B00078F0805D934090930B0180930A018091C8
:1002C0000601909107010196909307018093060122
:1002D00080910601909107019C012F5F3F4F309361
:1002E00007012093060143E0283E3407C8F0875EEB
:1002F0009340909307018093060180910C019091A7
:100300000D01A0910E01B0910F010196A11DB11D2B
:1003100080930C0190930D01A0930E01B0930F01F7
:10032000809102019091030123E08F3F920710F02A
:1003300080E094E09BBD8ABD80910401909105010D
:1003400043E08F3F940710F080E094E099BD88BDB2
:10035000809108019091090123E08F3F920710F0EE
:1003600080E094E09093790080937800BF91AF9102
:100370009F918F914F913F912F910F900FBE0F90B2
:100380001F901895E1E6F0E0908121E030E002C096
:10039000220F331F8A95E2F7209592239083E2E69D
:1003A000F0E0808182238083089590E497B997B12B
:1003B0008770892B87B987EC86B901C00000369910
:1003C000FDCF84B195B1392F20E0280F311D8091E8
:1003D000100190911101820F931F9093110180934E
:1003E0001001C901089580911001909111010895A3
:0403F000F894FFCFAF
:00000001FF
