:100000000C946D000C948C000C948C000C948C005F
:100010000C948C000C948C000C948C000C948C0030
:100020000C948C000C948C000C948C000C948C0020
:100030000C948C000C948C000C948C000C948C0010
:100040000C948C000C944F020C948C000C948C003B
:100050000C948C000C94280D0C948C000C948C0047
:100060000C948C000C948C000C948C000C948C00E0
:100070000C948C000C948C000C948C000C948C00D0
:100080000C948C000C948C000C948C00540D590D25
:100090005E0D630D680D6D0D720D770D7F0D840D76
:1000A000890D930D980DBF0DC10DCB0DBF0DC10D69
:1000B000C30DC50DC70DC30DC50DC70DC90DCB0DA6
:1000C000332E3300556E76657273696F6E656420EA
:1000D0006469726563746F72790011241FBECFEF7B
:1000E000D0E1DEBFCDBF13E0A0E0B1E0EEE6F2E28A
:1000F00000E00BBF02C007900D92AC35B107D9F7F5
:1001000024E0ACE5B3E001C01D92A835B207E1F7E9
:100110000E948E000C9435110C940000CF93DF9355
:10012000CDB7DEB72A970FB6F894DEBF0FBECDBFAE
:100130000E94DF0C81E00E94AC010E94E4040E9456
:10014000A10C0E9448021A821982FE01339688E0AF
:10015000DF011D928A95E9F780E00E94610386E441
:10016000A82E83E0B82E8E010F5F1F4F91E5892ED8
:1001700093E0992E0E94AD0C64E280E00E942F0370
:1001800080E493E00E9499046DE280E00E942F03D6
:10019000E0902D04F0902E04FF92EF92BF92AF9268
:1001A0001F930F930E94250EC8010E949904C090CE
:1001B0002B04D0902C04DF92CF929F928F921F93AA
:1001C0000F930E94250E6DE280E40E942F03C80168
:1001D0000E9499040FB6F894DEBF0FBECDBF99EE12
:1001E000C91693E0D90640F0A9EEEA16A3E0FA0694
:1001F00018F00E94AD0906C064EF7FEF84EF9FEF17
:100200000E94C6098CE291E00E941B02B3CF90913C
:100210006C03892790916500382F3170292F2E7F2C
:1002200091E09327922B90936500909165009D7FBC
:10023000311102C020E001C022E0922B90936500B2
:1002400090916500977F81FD02C080E001C088E049
:10025000892B80936500809165008F7E8093650077
:100260008FEF8ABB6BBB85E08A95F1F70000809128
:10027000650084608093650085E08A95F1F7000051
:10028000809165008B7F8093650085E08A95F1F70A
:1002900000001BBA1ABA089590916C0389279091B7
:1002A0006500382F3170292F2E7F91E09327922BF4
:1002B00090936500909165009D7F311102C020E010
:1002C00001C022E0922B9093650090916500977F8A
:1002D00081FD02C080E001C088E0892B8093650029
:1002E000809165008061809365001ABA85E08A95E7
:1002F000F1F700008091650084608093650095E1CE
:100300009A95F1F7000089B3909165009B7F9093D7
:10031000650095E09A95F1F7000008950F931F93FB
:10032000CF9390916D03911102C080E011C0C82F4E
:10033000C17000E010E08C2F0E944C010F5F1F4F36
:1003400087FF05C00F3F8FEF1807A9F7EECF81E0B9
:10035000CF911F910F910895CF93C82F8FEF809366
:100360006D0310926C038091640088608093640038
:100370008091640080618093640080916400846057
:100380008093640080916400816080936400809118
:100390006400826080936400B89A1ABA8091650004
:1003A000877F80936500809165008F7E80936500D4
:1003B000809165008B7F80936500809165008E7FC2
:1003C00080936500809165008D7F80936500C09863
:1003D000979B09C097988FE99FE00197F1F700C0BC
:1003E0000000979A06C08FE99FE00197F1F700C0DF
:1003F0000000C09A80E00E948E01882391F081E085
:100400000E948E01882351F0C33031F4C0936D03F4
:1004100081E080936C0305C082E001C081E080939D
:100420006D0380916D038F3F11F410926D038091E5
:100430006D03CF910895009741F0EFE9FFE0319708
:10044000F1F700C000000197F6CF08958FB99091A1
:10045000A90389278093A90308951092AA03809382
:100460008B0391E0980F90938D0396E99093A903E5
:100470009093AB03F894B09903C078940000FACF3E
:1004800090EC9DB90E942602779A789480E00895B6
:10049000B898C098BB9AC39A80E00C942D021F9222
:1004A0000F920FB60F9211240BB60F922F933F931A
:1004B0004F935F936F937F938F939F93AF93BF936C
:1004C000EF93FF938FB19091AB0398279093AB0379
:1004D000E091AA03E11116C0809389038C3130F0BA
:1004E00010928B031092890381E009C0482F50E0DD
:1004F00020918D0330E042175307FCF08F5F80930B
:100500008D031BC02E2F30E04091890350E042172D
:1005100053072CF0D901A357BC4F8C930EC0215028
:1005200031094217530749F4992339F080918A031E
:100530008F5F80938A031092890380918B03E81761
:1005400028F4F0E0E259FC4F80810AC0E81303C0B0
:100550008091A90305C080918D03E81748F48FEFBF
:100560000E9426028091AA038F5F8093AA0311C084
:10057000B898C0981DB8B898C09880918C038F5FC8
:1005800080938C037894809189030E94A2080E9432
:100590002D02FF91EF91BF91AF919F918F917F912C
:1005A0006F915F914F913F912F910F900BBE0F90E4
:1005B0000FBE0F901F901895CF93DF93C82FD8EBE5
:1005C000D60F883000F580E00E948E016D2F80E00C
:1005D0000E94070180E00E948E016C2F660F660F5B
:1005E000660F605C80E00E940701C0EBD3E082E010
:1005F0000E948E01699182E00E94070183E0C83B5E
:10060000D807A9F720C0C85081E00E948E016D2F45
:1006100081E00E94070181E00E948E01CC0FCC0F87
:10062000CC0F60E46C0F81E00E940701C0EBD3E0C7
:1006300083E00E948E01699183E00E94070183E0BC
:10064000C83BD807A9F7DF91CF9108958091AF03F8
:1006500008958091B80308958093AC030895CF93D3
:10066000DF93D82FC62F8093AF036093B80380E049
:100670000E948E0181E00E948E01C695C695C695A6
:10068000C8546C2F80E00E9407016C2F81E00E940B
:10069000070180E00E948E0181E00E948E0160E4EB
:1006A000D13428F080E00E9407016D2F05C06D0F46
:1006B00080E00E94070160E481E0DF91CF910C941B
:1006C00007011F93CF93DF93182FC8EB80E00E94A0
:1006D0008E0181E00E948E016C2F80E00E94070154
:1006E0006C2F81E00E940701D0E482E00E948E011D
:1006F00083E00E948E01612F82E00E940701612F3A
:1007000083E00E940701D15081F7CF5FC03CF1F632
:1007100080E00E948E0181E00E948E0168EB80E003
:100720000E94070168EB81E0DF91CF911F910C944B
:1007300007010F931F93CF93DF93D82FC62F80917C
:10074000AF0387FD37C011E0803408F410E0812F3B
:100750000E948E0102E0010F802F0E944C01802F29
:100760000E944C019091AC0392FF02C0D0959B7FF8
:10077000DC23911102C0C82F04C0913021F4C09530
:10078000C823CD2B02C0C82FCD27812F0E948E01F8
:100790006091AF036064812F0E940701812F0E9446
:1007A0008E016C2F802F0E9407018091AF038F5F15
:1007B0008093AF03DF91CF911F910F91089590EE39
:1007C000980F903608F080E8805296E0899FF001FB
:1007D0001124E050FF4F90818091AE03811101C040
:1007E0009FE125E080E090FD8F5F96952150D9F73D
:1007F00008957F928F929F92AF92BF92CF92DF9295
:10080000EF92FF920F931F93CF93DF93C62F90EE3B
:10081000980F903608F080E8805226E0829FC00151
:100820001124FC01EF5FFE4F7F01FC01E050FF4F00
:1008300090808091AE03811102C09FE1992EAC2E71
:100840000C2E000CBB086FEF70E06B010C2E01C08A
:10085000CC0C0A94EAF78C2C002711270A191B09E3
:10086000002E02C0759567950A94E2F7D62F85E0B1
:10087000782E90FE15C0F7018081C7FD07C0682D56
:100880000A2C01C0880F0A94EAF708C090E0002EF5
:1008900002C0959587950A94E2F76D2F0E949903FF
:1008A0009694FFEFEF1AFF0A7A947110E2CFC7FD1A
:1008B00002C06C2D07C06FEF70E002C075956795A0
:1008C0000A95E2F780E0DF91CF911F910F91FF90A1
:1008D000EF90DF90CF90BF90AF909F908F907F90E0
:1008E0000C9499031F93CF93DF93D82F1091AF03EC
:1008F000C091B803C7706C2F0E94F903CC23A9F0F4
:100900006091B803685F812F0E942F0368EF6C0F1E
:100910008D2F0E94F9036091B80368508091AF0356
:10092000DF91CF911F910C942F03DF91CF911F91F5
:100930000895CF93DF93EC018991882319F00E94E9
:100940007204FACFDF91CF9108950F931F93CF9345
:100950008C01C0E0F80181918F01882331F00E9461
:10096000DF038C0FC1E0C80FF5CF8C2FCF911F9103
:100970000F910895CF93DF93EC01CE01FE012491F6
:10098000222331F02196FC0184910E947204F5CF5C
:10099000DF91CF9108950F931F93CF938C01C0E007
:1009A000C801F8012491222351F00F5F1F4FFC0171
:1009B00084910E94DF038C0FC1E0C80FF1CF8C2F10
:1009C000CF911F910F91089580E00E948E016FE3F7
:1009D00080E00E94070180E00E948E0160EC80E0D0
:1009E0000E94070180E00E948E0160E480E00E9486
:1009F000070180E00E948E0168EB80E00E94070101
:100A000081E00E948E016FE381E00E94070181E096
:100A10000E948E0160EC81E00E94070181E00E944B
:100A20008E0160E481E00E94070181E00E948E0156
:100A300068EB81E00E94070180E00E94610381E091
:100A40008093AC0308958093AE0308958091AE0324
:100A50000895CF93DF939091B8039770C1E001C0E0
:100A6000CC0F9A95EAF7D82FDD2331F06C2F8C2F1D
:100A70000E949903D150F8CFDF91CF910895AF92A2
:100A8000BF92CF92DF92EF92FF920F931F93CF937B
:100A9000DF93B82EC62FE090AF031091B803812FDB
:100AA0008770DFEF01C0DD0F8A95EAF788E0A82E96
:100AB000CC24CA94D12CCC2321F1812F87700A2D0C
:100AC000081BC01748F4802F8C1B960102C0359577
:100AD00027958A95E2F7D223FB2CFF2031F06D2F6A
:100AE0008D2F0E949903FA94F8CF8C2F0C1708F4DD
:100AF000802FC81B180F612F8E2D0E942F03DFEF50
:100B0000DACFDF91CF911F910F91FF90EF90DF909F
:100B1000CF90BF90AF900895682F81E00C943F056F
:100B20002F923F924F925F926F927F928F929F92FD
:100B3000AF92BF92CF92DF92EF92FF920F931F93EB
:100B4000CF93DF93482ED62F5A013090AF03809079
:100B5000B803882D87709FEF992E01C0990C8A9554
:100B6000EAF7242D30E0C901019797FD079623E0AD
:100B7000959587952A95E1F7C1E0C80FEC2EF12CE9
:100B8000670133E0CC0CDD1C3A95E1F7512C48E0CD
:100B9000242EDD2309F456C0882D8770722C781A14
:100BA000D71550F4872D8D1B2FEF30E002C03595FF
:100BB00027958A95E2F79222052D070DC09F8001A7
:100BC0001124612C641481F1862D877059F0E82F6F
:100BD000F0E0E055FC4F8081692D89210E94990346
:100BE0006394F0CF962D969596959695F801E90F1A
:100BF000F11DEC19FD09EA0DFB1D28E030E04081F4
:100C0000A0EBB3E09C91969540FD90689C9346952F
:100C1000119668EB73E06A177B07A1F7EE0DFF1DD5
:100C20002150310961F7D3CF8D2F7D1608F4872D20
:100C3000D81B880E580E682D832D0E942F039924EF
:100C40009A94A7CFDF91CF911F910F91FF90EF90D2
:100C5000DF90CF90BF90AF909F908F907F906F90DC
:100C60005F904F903F902F9008952F923F924F9218
:100C70005F926F927F928F929F92AF92BF92CF922C
:100C8000DF92EF92FF920F931F93CF93DF93482E43
:100C9000D62F4A013090AF030091B803802F8770A0
:100CA0001FEF01C0110F8A95EAF7242D30E0C9012A
:100CB000019797FD079623E0959587952A95E1F78B
:100CC000C1E0C80FCC2ED12C560133E0AA0CBB1CBE
:100CD0003A95E1F7512C48E0242EDD2309F455C064
:100CE000802F8770722C781AD71550F4872D8D1BA2
:100CF0002FEF30E002C0359527958A95E2F7122351
:100D0000E52CE70CCE9D70011124612C641481F157
:100D1000862D877059F0E82FF0E0E055FC4F808178
:100D2000612F81230E9499036394F0CF962D9695AD
:100D300096959695F701E90FF11DEA19FB09E80D63
:100D4000F91D28E030E04491A0EBB3E09C9196952A
:100D500040FD90689C934695119668EB73E06A1786
:100D60007B07A1F7EC0DFD1D2150310961F7D3CFB1
:100D70008D2F7D1608F4872DD81B080F580E602F75
:100D8000832D0E942F031FEFA8CFDF91CF911F91DA
:100D90000F91FF90EF90DF90CF90BF90AF909F901A
:100DA0008F907F906F905F904F903F902F9008951D
:100DB0009091B803977021E030E001C0220F9A951E
:100DC000EAF7882311F0622F01C060E0822F0C94B3
:100DD0009903BF92CF92DF92EF92FF920F931F93EE
:100DE000CF93DF93182F062FD091AF038091B803D4
:100DF000D1130FC0861720F4962F981B892F06C099
:100E0000C82FC61B812F0E942F038C2F0E948C0598
:100E10005AC0F82E68130DC0D11718F4812F8D1BFE
:100E200005C0D11B812F0E942F038D2F0E94290501
:100E30004AC01D1728F4DD2ED11ACC24CA9409C04B
:100E4000D11728F4D12EDD1ACC24C39402C0C12CB2
:100E5000D12C081728F4C82FC01BBB24BA9409C092
:100E6000801728F4C02FC81BBB24B39402C0B12C38
:100E7000C0E081E00E94D806CD1598F4ED2CE694F0
:100E8000E194EC0EDC0D1E1414F4ED18FB0C6F2D28
:100E90008D2F0E942F0381E00E94D8061D13F1CFF1
:100EA00012C0EC2EE694E194ED0CFB0C1E1414F42D
:100EB000EC1ADC0D6F2D8D2F0E942F0381E00E9414
:100EC000D8060F11F1CF602F812FDF91CF911F91A5
:100ED0000F91FF90EF90DF90CF90BF900C942F0375
:100EE00080E00E9461031092AD031092B90308954F
:100EF000CF931092AE03C0E06091AD03660F660F12
:100F0000660F8C2F0E942F0380E20E947204CA5F3A
:100F1000CE3791F7CF910895863130F4683020F4C0
:100F20006093AD038093B90308958091B903089548
:100F30008091AD030895CF92DF92EF92FF920F93CD
:100F40001F93CF93DF93C9EB28EBC22E23E0D22E61
:100F500010E0D0E007E40C0FD83050F580E00E949C
:100F60008E016C2F80E00E94070180E00E948E01BC
:100F700060E4610F80E00E94070182E00E944C0162
:100F800090EBE92E93E0F92E82E00E944C01F701EC
:100F900081937F01F8EBEF16F3E0FF06A9F7602FCE
:100FA0008D2F0E94DC02DF5F185FD031A9F61FC0D1
:100FB00081E00E948E016C2F81E00E94070181E098
:100FC0000E948E01612F81E00E94070183E00E9450
:100FD0004C0180EBE82E83E0F82E83E00E944C0168
:100FE000F70181937F01CE16DF06B9F7D8CFCF5F27
:100FF000C03C09F0ADCFE0EBF3E088EB93E0119259
:101000008E179F07E1F7C0E067E08C2F0E94DC029B
:10101000CF5FC031C9F78091AD03882319F08150AB
:101020008093AD03DF91CF911F910F91FF90EF90CF
:10103000DF90CF900895CF938A3069F41092B9036E
:101040008091AD038F5F8093AD03883061F581E0BF
:10105000CF910C949B078D3031F1C82F8091B9034B
:10106000853160F01092B9038091AD038F5F80935A
:10107000AD03883019F481E00E949B076091AD03B5
:10108000660F660F660F8091B903982F990F890F2D
:10109000880F0E942F038C2F0E9472048091B90345
:1010A0008F5F8093B903CF9108951092AE030C9493
:1010B0001B080F931F93CF93DF931092AE03EC01A5
:1010C0008C01060F171FC017D10721F089910E94CC
:1010D0001B08F9CFDF91CF911F910F910895CF9306
:1010E000DF931092AE03EC018991882319F00E94DE
:1010F0001B08FACFDF91CF910895CF93DF93109221
:10110000AE03FC018491EF012196882321F00E9417
:101110001B08FE01F7CFDF91CF910895789420E16D
:1011200037E297E0899FF0011124E054FC4F2150F1
:10113000310919F080818F3FD1F781E0232B09F429
:1011400080E00895909114049F5F909314048B3174
:1011500041F4EEE8F3E0A7EFB3E001900D928A9539
:10116000E1F78FEF80937C038093750380936E0388
:101170009091C0039F3F69F097E0E0ECF3E0AEE6AA
:10118000B3E001900D929A95E1F78093C00387E058
:1011900001C080E09091C7039F3F79F0A82FB0E095
:1011A000A259BC4F97E0E7ECF3E001900D929A95BD
:1011B000E1F79FEF9093C703895F9091CE039F3F24
:1011C00079F0A82FB0E0A259BC4F87E0EEECF3E035
:1011D00001900D928A95E1F78FEF8093CE0304C0C2
:1011E000811102C087E0089585E1089527E0829F7C
:1011F000C0011124FC01E054FC4F81E090819F3F2D
:1012000009F480E00895F894A9EDB3E0E7EFF3E086
:10121000818190E0982F88272081820F911D11965F
:101220009C938E93838190E0982F88272281820F50
:10123000911D13969C938E931297858190E0982F21
:1012400088272481820F911D15969C938E93149765
:10125000878190E0982F88272681820F911D17960D
:101260009C938E931697818590E0982F88272085F0
:10127000820F911D19969C938E9318977894F894E9
:1012800022858091BC039091BD03AC01420F511D9A
:101290009385892F90E0982F8827840F951F90932E
:1012A000D6038093D50324858091BA039091BB0324
:1012B000AC01420F511D9585892F90E0982F88270A
:1012C000840F951F9093EE038093ED03878590E044
:1012D000982F88272685820F911D9093160480935E
:1012E0001504818990E0982F88272089820F911D0D
:1012F0009093EC038093EB03838990E0982F8827E9
:101300002289820F911D9093BF038093BE0385892C
:1013100090E0982F88272489820F911D9093F603DF
:101320008093F5037894F894808D90E0982F882727
:101330002789820F911D9093D8038093D703828DC4
:1013400090E0982F8827218D820F911D9093130490
:1013500080931204789481E00895F89481E080935A
:10136000C00378940895F8948AE08093C003789439
:1013700081E00895F894E0ECF3E025E02083818398
:10138000928363837483789481E00895F894E0EC09
:10139000F3E022E0208381839283638374837894D3
:1013A00081E008952091BC033091BD03821B930B13
:1013B0002091BA033091BB03621B730BF894E0ECED
:1013C000F3E023E0208381839283638374834583E6
:1013D0005683789481E00895F894E0ECF3E024E0FB
:1013E00020838183928363837483458356837894B7
:1013F00081E008951F93CF93DF93182FD62FC42F2A
:1014000082E00E948E08F894E0ECF3E086E08687A4
:101410001787D08BC18B789481E0DF91CF911F919A
:10142000089581E00895F894E7EFF3E0258530E032
:10143000322F22274485240F311D438550E0542F3D
:101440004427E2854E0F511DFC01E41BF50BF09380
:10145000BD03E093BC03AB01421B530B5093BB0392
:101460004093BA039093D6038093D5037093EE0311
:101470006093ED03789481E0089581E00E948E08E6
:10148000F89488E08093C703789481E0089581E020
:101490000E948E08F89487E08093C703789481E0D7
:1014A0000895CF93DF93D82FC92F81E00E948E0833
:1014B000F894E0ECF3E089E08783D087C1877894E3
:1014C00081E0DF91CF9108951F93CF93DF93182F81
:1014D00084E0810F0E940C0DEC0188E0810F0E94D6
:1014E0000C0D8C179D0728F49E01281B390BC90190
:1014F00002C080E090E0DF91CF911F910895CF93DB
:10150000C82F0E94640A4C2F50E0440F551FFA0167
:10151000E45AFC4F208131818217930708F49C0123
:10152000BC01621B730B9B01FA01EC59FC4FA081BB
:10153000B1810E94160EBB27A92F982F872F8115E6
:1015400070E89707A105B10510F08FEF9FE7CF91E5
:101550000895CF93C82F84E08C0F0E940C0D8F3F0D
:1015600023E0920728F42FEF33E0281B390B02C049
:1015700020E030E0EC2FF0E0EE0FFF1FEC59FC4FC5
:10158000A081B1810E94160EBB27A92F982F872F0B
:10159000811520E89207A105B10510F08FEF9FE7B4
:1015A000CF9108954F925F926F927F928F929F9208
:1015B000AF92BF92CF92DF92EF92FF920F931F9361
:1015C000CF93DF93C7E1D4E0A880B98084E6882E6A
:1015D00083E0982E288539852A193B0940E050E0A0
:1015E000412C512C90E8692E712CC301B2010E944C
:1015F000EB0DF40131832083CA80DB802A853B8593
:101600002C193D0940E050E0C301B2010E94EB0DEE
:10161000F40133832283EC80FD802C853D852E19D7
:101620003F0940E050E0C301B2010E94EB0DF4011C
:10163000358324830E811F812E853F85201B310B2E
:1016400040E050E0C301B2010E94EB0DF40137838A
:101650002683ECE5F3E025E0B694A7942A95E1F71C
:10166000B182A08235E0D694C7943A95E1F7D3824F
:10167000C28245E0F694E7944A95E1F7F582E48268
:1016800055E0169507955A95E1F717830683DF9184
:10169000CF911F910F91FF90EF90DF90CF90BF906F
:1016A000AF909F908F907F906F905F904F90089534
:1016B000843010F40C947F0A80E090E00895843028
:1016C00010F40C94A90A80E090E00895843018F09A
:1016D00080E090E008958C5F0E940C0D8F3F23E026
:1016E0009207B0F72FEF33E0A901481B590BCA014D
:1016F0000895843018F080E090E00895885F0E949B
:101700000C0D8F3F23E09207B0F72FEF33E0A901D4
:10171000481B590BCA010895843010F40C94640AD4
:1017200080E090E008950F931F93CF93DF93082FED
:10173000C82FD0E0CC0FDD1FC95EDB4F19821882A5
:1017400010E20E94200D802F0E94640A28813981B6
:10175000820F931F99838883115099F7DF91CF915E
:101760001F910F910C94D20A0F931F93CF93DF9385
:10177000082FC82FD0E0CC0FDD1FC15EDB4F1982D0
:10178000188210E20E94200D802F0E94640A288196
:101790003981820F931F99838883115099F7DF91C4
:1017A000CF911F910F910C94D20ACF9310921804ED
:1017B0001092170410921A041092190410921C042B
:1017C00010921B0410921E0410921D04C0E20E948D
:1017D000200D80E00E94640A2091170430911804C3
:1017E000820F931F909318048093170481E00E9446
:1017F000640A2091190430911A04820F931F909368
:101800001A048093190482E00E94640A20911B0448
:1018100030911C04820F931F90931C0480931B042F
:1018200083E00E94640A20911D0430911E04820FFF
:10183000931F90931E0480931D04C15041F6CF91D5
:101840000C94D20ACF931092200410921F0410928D
:101850002204109221041092240410922304109266
:10186000260410922504C0E20E94200D80E00E9410
:10187000640A20911F0430912004820F931F9093DB
:10188000200480931F0481E00E94640A20912104B7
:1018900030912204820F931F90932204809321049D
:1018A00082E00E94640A2091230430912404820F74
:1018B000931F909324048093230483E00E94640A7E
:1018C0002091250430912604820F931F90932604C3
:1018D00080932504C15041F6CF910C94D20A40E187
:1018E00050E060E070E087E194E00E940E1180918A
:1018F000170490911804019611F510921804109293
:10190000170410921A041092190410921C041092D9
:101910001B0410921E0410921D0480E090E190932D
:10192000200480931F0490932204809321049093B9
:1019300024048093230490932604809325040C941C
:10194000D20A0E946F0C0C94020D40E150E060E05E
:1019500070E087E194E00C941E11CF93DF937894AC
:1019600080E00E94A90ACFE2D4E09983888381E0D5
:101970000E94A90A9B838A8382E00E94A90A9D8310
:101980008C8383E00E94A90A9F838E8380E00E945B
:101990007F0AC7E2D4E09983888381E00E947F0AAE
:1019A0009B838A8382E00E947F0A9D838C8383E0ED
:1019B0000E947F0A9F838E83DF91CF910895CF93FA
:1019C000CFB7F8948F9A97988FE39CE90197F1F736
:1019D00000C00000979A9FEF21EE84E091502040D4
:1019E0008040E1F700C000000E94020DCFBFCF9100
:1019F000089578948CE00E940C0D909338048093A5
:101A0000370408958FEE86B9E1E6F0E080818064C6
:101A10008083089516B808952FB7F894E82FF0E062
:101A2000EE0FFF1FE45CFB4F808191812FBF089573
:101A30002FB7F89480915604909157042FBF0895C2
:101A400090913B0480913B049817E1F30895089529
:101A50001F920F920FB60F9211240BB60F922F9375
:101A60003F934F935F936F937F938F939F93AF9326
:101A7000BF93EF93FF93E091390484B195B1209126
:101A8000560430915704280F391F30935704209380
:101A900056044E2F50E04D30510508F04DC0FA016C
:101AA000EA5BFF4F0C940D0E909345048093440421
:101AB00043C090934704809346041DC090933D0417
:101AC00080933C0439C090934D0480934C0434C0FF
:101AD00090934F0480934E0420C0909341048093D0
:101AE00040042AC0909349048093480425C09093F1
:101AF0004B0480934A0480916200806411C09093EB
:101B00003F0480933E0418C0909351048093500486
:101B100013C09093530480935204809162008F7B92
:101B20008093620009C0909343048093420404C0F0
:101B30009093550480935404809139048F5F8D30C5
:101B400018F4809339040FC0109239042091560480
:101B500030915704C901880F991F37FD0196909362
:101B6000570480935604E09139048E2F90E08D3015
:101B7000910598F4FC01ED5AFF4F0C940D0E83E48F
:101B80000BC085E409C081E407C080E405C084E49B
:101B900003C087E401C082E487B9809139048111D0
:101BA00007C00E94270D80913B048F5F80933B0408
:101BB000FF91EF91BF91AF919F918F917F916F9125
:101BC0005F914F913F912F910F900BBE0F900FBEE1
:101BD0000F901F901895A1E21A2EAA1BBB1BFD01A6
:101BE0000DC0AA1FBB1FEE1FFF1FA217B307E407FC
:101BF000F50720F0A21BB30BE40BF50B661F771F54
:101C0000881F991F1A9469F7609570958095909533
:101C10009B01AC01BD01CF010895EE0FFF1F002411
:101C2000001C0BBE0790F691E02D0994A29FB00115
:101C3000B39FC001A39F700D811D1124911DB29F00
:101C4000700D811D1124911D08950F931F93CF9343
:101C5000DF93CDB7DEB72E970FB6F894DEBF0FBE79
:101C6000CDBF0D891E8986E08C831A8309838FEF8F
:101C70009FE79E838D83AE01475E5F4F6F89788DAE
:101C8000CE0101960E94540EEF81F885E00FF11FFE
:101C900010822E960FB6F894DEBF0FBECDBFDF9137
:101CA000CF911F910F9108952F923F924F925F9283
:101CB0006F927F928F929F92AF92BF92CF92DF925C
:101CC000EF92FF920F931F93CF93DF93CDB7DEB7C1
:101CD0002B970FB6F894DEBF0FBECDBF6C017B0112
:101CE0008A01FC0117821682838181FFCCC1CE015B
:101CF00001963C01F6019381F70193FD859193FFD5
:101D000081917F01882309F4BAC1853239F493FDAA
:101D1000859193FF81917F01853229F4B60190E08E
:101D20000E947410E7CF912C212C312CFFE1F31588
:101D3000D8F08B3279F038F4803279F08332A1F424
:101D4000232D20611DC08D3261F0803369F4232D75
:101D5000216016C0832D8260382EE32DE4603E2E74
:101D60002AC0F32DF8601DC037FC2DC020ED280FD0
:101D70002A3040F08E32B9F436FC81C1232D206424
:101D8000322E19C036FE06C08AE0989E200D11241E
:101D9000922E11C0EAE02E9E200D1124222EF32D4A
:101DA000F0623F2E08C08C3621F4832D8068382ED7
:101DB00002C0883641F4F70193FD859193FF81912C
:101DC0007F018111B3CF982F9F7D9554933028F4D4
:101DD0000C5F1F4F9FE399830DC0833631F083372B
:101DE00071F0833509F059C021C0F80180818983E1
:101DF0000E5F1F4F88248394912C530113C0280138
:101E0000F2E04F0E511CF801A080B18036FE03C0F5
:101E1000692D70E002C06FEF7FEFC5010E9469106D
:101E20004C018201F32DFF773F2E16C0280122E0DE
:101E3000420E511CF801A080B18036FE03C0692D0E
:101E400070E002C06FEF7FEFC5010E945E104C0191
:101E5000F32DF0683F2E820133FC1BC0822D90E0F1
:101E600088169906B0F4B60180E290E00E947410E2
:101E70002A94F4CFF50137FC859137FE81915F01FB
:101E8000B60190E00E94741021102A9421E0821A79
:101E900091088114910471F7E8C0843611F08936F5
:101EA00041F5F80137FE07C060817181828193811D
:101EB0000C5F1F4F08C060817181072E000C880BDA
:101EC000990B0E5F1F4FF32DFF763F2E97FF09C032
:101ED00090958095709561957F4F8F4F9F4FF068DB
:101EE0003F2E2AE030E0A3010E94B010882E861811
:101EF00045C0853731F4232D2F7EB22E2AE030E005
:101F000025C0932D997FB92E8F36C1F018F48835EE
:101F100079F0B5C0803719F0883721F0B0C0E92FCB
:101F2000E061BE2EB4FE0DC0FB2DF460BF2E09C0D3
:101F300034FE0AC0292F2660B22E06C028E030E009
:101F400005C020E130E002C020E132E0F801B7FE38
:101F500007C060817181828193810C5F1F4F06C031
:101F60006081718180E090E00E5F1F4FA3010E94AD
:101F7000B010882E8618FB2DFF773F2E36FE0DC041
:101F8000232D2E7FA22E891458F434FE0BC032FC70
:101F900009C0832D8E7EA82E05C0B82CA32C03C0AB
:101FA000B82C01C0B92CA4FE0FC0FE01E80DF11D34
:101FB0008081803321F49A2D997EA92E09C0A2FE3A
:101FC00006C0B394B39404C08A2D867809F0B39404
:101FD000A3FC11C0A0FE06C0B21488F4280C922CF9
:101FE0009B180EC0B21460F4B60180E290E00E942B
:101FF0007410B394F7CFB21418F42B1802C0982CB5
:10200000212CA4FE10C0B60180E390E00E94741061
:10201000A2FE17C0A1FC03C088E790E002C088E5DB
:1020200090E0B6010CC08A2D867859F0A1FE02C05E
:102030008BE201C080E2A7FC8DE2B60190E00E9435
:102040007410891438F4B60180E390E00E94741093
:102050009A94F7CF8A94F301E80DF11D8081B601BF
:1020600090E00E9474108110F5CF222009F442CE36
:10207000B60180E290E00E9474102A94F6CFF60137
:102080008681978102C08FEF9FEF2B960FB6F89451
:10209000DEBF0FBECDBFDF91CF911F910F91FF909B
:1020A000EF90DF90CF90BF90AF909F908F907F90F8
:1020B0006F905F904F903F902F900895FC01059096
:1020C000615070400110D8F7809590958E0F9F1F3A
:1020D0000895FC016150704001900110D8F780957F
:1020E00090958E0F9F1F08950F931F93CF93DF93AB
:1020F000FB01238121FD03C08FEF9FEF2CC022FF46
:1021000016C046815781248135814217530744F414
:10211000A081B1819D012F5F3F4F318320838C933C
:10212000268137812F5F3F4F3783268314C08B0171
:10213000EC01FB010084F185E02D0995892BE1F686
:10214000D80116968D919C911797019617969C939E
:102150008E931697CE01DF91CF911F910F91089525
:10216000FA01AA27283051F1203181F1E8946F93C8
:102170006E7F6E5F7F4F8F4F9F4FAF4FB1E03ED06E
:10218000B4E03CD0670F781F891F9A1FA11D680F0C
:10219000791F8A1F911DA11D6A0F711D811D911D3F
:1021A000A11D20D009F468943F912AE0269F1124B4
:1021B0003019305D3193DEF6CF010895462F477018
:1021C000405D4193B3E00FD0C9F7F6CF462F4F7073
:1021D000405D4A3318F0495D31FD4052419302D0D1
:1021E000A9F7EACFB4E0A695979587957795679577
:1021F000BA95C9F700976105710508959B01AC0177
:102200000A2E06945795479537952795BA95C9F79D
:10221000620F731F841F951FA01D0895DC01CB0161
:10222000FC01E199FECF06C0FFBBEEBBE09A319600
:102230000DB20D9241505040B8F70895DC01CB012A
:1022400003C02D910E94291141505040D0F70895AC
:10225000262FE199FECF9FBB8EBB2DBB0FB6F89406
:0E226000E29AE19A0FBE01960895F894FFCF1E
:10226E000300000000000400005F00000E000700E5
:10227E0007001F147F147F141F242A7F2A121F2386
:10228E00130864621F3649552250060005030000EC
:10229E000E001C2241000E0041221C001F14083E9D
:1022AE0008141F08083E08080600A06000000F086A
:1022BE00080808080600606000000E00601C03009D
:1022CE001F3E5149453E0E00427F40001F42615164
:1022DE0049461D2141454B311F1814127F101D27F1
:1022EE0045454539173C4A4949301E0171090503D8
:1022FE001D36494949361D064949291E06003636FE
:10230E0000000600AC6C00000F08142241000F14F0
:10231E00141414141E00412214081F020151090640
:10232E001F324979413E1F7C1211127C177F494999
:10233E004936173E414141221F7F4141221C177FE2
:10234E0049494941177F09090901173E4149497A0F
:10235E00177F0808087F0E00417F41001F20404173
:10236E003F011F7F08142241177F404040401F7FCE
:10237E00020C027F1F7F0408107F173E4141413E31
:10238E00177F09090906173E414141BE1D7F0919F4
:10239E0029461746494949311F01017F0101173F5F
:1023AE004040403F1F1F2040201F1F3F4038403FEE
:1023BE001F63140814631F07087008071F61514933
:1023CE0045430E007F4141000E00031C60000E00CD
:1023DE0041417F000E04020102041F404040404074
:1023EE000C0000030400172054545478177F4844FF
:1023FE0044381738444444201D384444487F173825
:10240E005454541817087E0901021718A4A4A4786E
:10241E00177F080404780E00447D40000D40808430
:10242E007D000F7F102844000E00417F40001F7C6E
:10243E0004780478177C0804047817384444443828
:10244E0017FC242424181718242424FC177C0804B1
:10245E00040817485454542017043F4440201D3C90
:10246E004040207C1F1C2040201C1F3C4030403C24
:10247E001F4428102844171CA0A0A07C1F4464549D
:10248E004C440E00083641000400007F00000E0090
:10249E00413608001F02010204021FAA55AA55AABE
:1024AE0046726F6E740072656C2052202534752052
:0C24BE000072656C204C20253475200055
:00000001FF
