:100000000C94CC000C94EB000C94EB000C94EB00E3
:100010000C94EB000C94EB000C94EB000C94EB00B4
:100020000C94EB000C94EB000C94EB000C94EB00A4
:100030000C94EB000C94EB000C944A040C94EB0031
:100040000C94EB000C94FD040C94EB000C94EB006E
:100050000C94EB000C94EB000C94EB000C94EB0074
:100060000C94EB000C94EB000C94EB000C94EB0064
:100070000C94EB000C94EB000C94EB000C94EB0054
:100080000C94EB000C94EB000C94EB003136330035
:10009000322E3131006E616E00696E660000407A6A
:1000A00010F35A00A0724E18090010A5D4E8000001
:1000B000E87648170000E40B54020000CA9A3B009F
:1000C0000000E1F505000080969800000040420F16
:1000D000000000A08601000000102700000000E8DA
:1000E00003000000006400000000000A000000009F
:1000F000000100000000002C76D888DC674F082340
:10010000DFC1DFAE59E1B1B796E5E3E453C63AE6A5
:1001100051997696E8E6C28426EB898C9B62ED4085
:100120007C6FFCEFBC9C9F40F2BAA56FA5F49005D4
:100130005A2AF75C936B6CF9676DC11BFCE0E40D08
:1001400047FEF520E6B500D0ED902E0300943577FC
:10015000050080841E080000204E0A000000C80C24
:10016000333333330F986E12831141EF8D2114898D
:100170003BE65516CFFEE6DB18D1844B381BF77CE7
:100180001D901DA4BBE424203284725E228100C92C
:10019000F124ECA1E53D270011241FBECFEFD0E1F3
:1001A000DEBFCDBF13E0A0E0B1E0E6EFF0E300E09A
:1001B0000BBF02C007900D92AC3DB107D9F714E018
:1001C000ACEDB3E001C01D92A13CB107E1F70E9484
:1001D00067010C9479180C9400001F93182F84E188
:1001E0006DE20E94CE0681E00E94E705113029F001
:1001F000113018F0123041F403C080E091E002C0E9
:100200008FE091E00E94500B84E167E30E94CE06EC
:10021000113041F0113018F0123059F406C08DE160
:1002200091E005C081E391E002C085E491E00E9485
:10023000500B1F9108950F931F939C01932F3070C3
:10024000890184E0169507958A95E1F7122F1F70B2
:100250009A301CF4892F805D02C0892F895A0A3098
:1002600014F4005D01C0095A1A3014F4105D01C085
:10027000195A0E94D70A802F0E94D70A812F0E9404
:10028000D70A1F910F9108951F93982F92959F70F1
:10029000182F1F709A301CF4892F805D02C0892F9F
:1002A000895A1A3014F4105D01C0195A0E94D70AF5
:1002B000812F0E94D70A1F9108951F93182F892F0D
:1002C0000E944401812F0E9444011F9108952F92A2
:1002D0003F924F925F926F927F928F929F92AF92D6
:1002E000BF92CF92DF92EF92FF920F931F93DF9313
:1002F000CF93CDB7DEB766970FB6F894DEBF0FBECB
:10030000CDBF78940E9477100E9418040E946B1051
:100310000E94F5040E944A100E94D0100E94BA0365
:10032000882351F082E390E00E94C6108091E5039B
:10033000823011F40E948F0680E00E944D0685E114
:1003400060E00E94CE0681E00E94E70589E591E029
:100350000E94500B80E00E94E70580E00E94ED00C3
:100360008E010F5F1F4F84E190E00E94CE040E9437
:1003700063106091BD047091BE0480E090E00E9423
:1003800099112FE632E143E85CE30E944B127B01B6
:10039000D82EC92E8DB79EB708970FB6F8949EBF7A
:1003A0000FBE8DBFEDB7FEB73196ADB7BEB7129693
:1003B0001C930E9311978CE691E0938382839601B0
:1003C0008E2D9F2DA32FB22F84839583A683B78371
:1003D0000E94C417ADB7BEB718960FB6F894BEBF4B
:1003E0000FBEADBF8DE16AE00E94CE0681E00E94A3
:1003F000E70584E791E00E94500B80E00E94E7054A
:10040000C8010E94500B60919801709199018091F0
:100410009A0190919B0126E636E646E65FE30E944C
:100420004B124B015C0196016E2D7F2D832F922F75
:100430002DEC3CEC4CEC5DE30E944B129B01AC01BB
:10044000C501B4010E943111262F372F482F592F93
:10045000209398013093990140939A0150939B0106
:1004600020E030E040E151E40E9495118823ACF592
:1004700080E00E944D0689E164E10E94CE0681E0A1
:100480000E94E7058DE791E00E94500B83E26EE148
:100490000E94CE068DE891E00E94500B80E00E9401
:1004A000E7051AEA05E580E090E00E94BC10979805
:1004B00084EF91E00E94C61013B915BA84EF91E061
:1004C0000E94CE0480E090E00E94C61003B915BAE5
:1004D00084EF91E00E94CE04E6CF0E94530F20905B
:1004E000BB043090BC042091B9043091BA04409010
:1004F000B7045090B8046090B5047090B604E090D2
:10050000B304F090B404C090B104D090B2048090D1
:10051000AF049090B004A090AD04B090AE0485E01C
:1005200064E12D8B3E8B0E94CE06C1010E945D01CD
:1005300080E20E94D70AC2010E945D0180E20E940F
:10054000D70AC3010E945D0180E20E94D70A2D896B
:100550003E89C9010E945D0185E06EE10E94CE06E0
:10056000C7010E945D0180E20E94D70AC4010E9477
:100570005D0180E20E94D70AC5010E945D0180E210
:100580000E94D70AC6010E945D01B1E5AB16B10415
:1005900010F080E101C080E091E58916910408F037
:1005A0008062A1E5CA16D10408F08860B1E5EB16B7
:1005B000F10408F080649091E403913039F09130B7
:1005C00018F0923031F404C0816003C0826001C031
:1005D000836013B885BB8499C6CE84E190E00E9405
:1005E000CE048499C0CE849BFECF8091E4038F5FBC
:1005F0008093E403823051F0833071F0813099F4BC
:1006000015BA89E783B90E94000F0DC015BA9AE7A1
:1006100093B90E94AD0E07C015BAACE7A3B90E940A
:100620008A0D1092E4038091E4030E94ED0088EEAD
:1006300093E00E94CE0497CE90916500282F30E081
:1006400080E0A9014170507020FF81E09E7F982BCF
:1006500090936500809165004115510511F490E07B
:1006600001C092E08D7F892B8093650080916500A9
:1006700021FD02C090E001C098E0877F892B809324
:100680006500809165008F7E809365008FEF8ABB47
:100690006BBB85E0982F9A95F1F790916500946077
:1006A00090936500982F9A95F1F7909165009B7F44
:1006B000909365008A95F1F71BBA1ABA0895909144
:1006C0006500282F30E080E0A9014170507020FFC4
:1006D00081E09E7F982B9093650080916500411585
:1006E000510511F490E001C092E08D7F892B809339
:1006F00065008091650021FD02C090E001C098E096
:10070000877F892B8093650080916500806180934D
:1007100065001ABA25E0822F8A95F1F7809165006D
:1007200084608093650085E18A95F1F789B39091A3
:1007300065009B7F90936500922F9A95F1F708953D
:100740001F93CF93DF939091E503992371F0182FB6
:100750001170CFEFDFEF812F0E945F03219787FD9C
:1007600002C081E003C02097B1F780E0DF91CF9114
:100770001F9108958FEF8093E50380916400886056
:100780008093640080916400806180936400809114
:100790006400846080936400809164008160809331
:1007A000640080916400826080936400B89A1ABAF1
:1007B00080916500877F80936500809165008F7EC2
:1007C00080936500809165008B7F809365008091A8
:1007D00065008E7F80936500809165008D7F80939A
:1007E0006500C098979B07C0979880EA9FE00197A3
:1007F000F1F7979A04C080EA9FE00197F1F7C09A59
:1008000080E00E94A003882351F081E00E94A003B1
:10081000882311F082E001C081E08093E50380919C
:10082000E5038F3F11F41092E5038091E5030895ED
:100830001092EF031092EE031092EB031092EA0372
:100840001092F0031092F1031092F2031092F3034E
:100850001092E7031092E6031092E9031092E80366
:100860008FEF93E09093ED038093EC03C598C698C7
:10087000BD9ABE9ABF9AC79A1DBC1CBC8AEA8FBD9E
:1008800082E18EBD80E094E097BD86BD87B784602D
:1008900087BF08951F920F920FB60F9211242F93C6
:1008A0003F934F938F939F93AF93BF938091EE03AA
:1008B0009091EF039C01285E3F4F3093EF0320930C
:1008C000EE0343E0283E340778F0805D9340909338
:1008D000EF038093EE038091EA039091EB0301967E
:1008E0009093EB038093EA038091EA039091EB03EA
:1008F0009C012F5F3F4F3093EB032093EA0343E0CB
:10090000283E3407C8F0875E93409093EB038093B2
:10091000EA038091F0039091F103A091F203B0916A
:10092000F3030196A11DB11D8093F0039093F10391
:10093000A093F203B093F3038091E6039091E70351
:1009400023E08F3F920710F080E094E09BBD8ABDCA
:100950008091E8039091E90343E08F3F940710F002
:1009600080E094E099BD88BD8091EC039091ED0307
:1009700023E08F3F920710F080E094E0909379009D
:1009800080937800BF91AF919F918F914F913F914C
:100990002F910F900FBE0F901F90189520EA3FE007
:1009A00004C0F9013197F1F701970097D1F7089545
:1009B0001092300480931104982F9F5F909313043A
:1009C00096E990933104F89403C078940000F89469
:1009D000B09BFBCF90EC9DB98FB996E99827909387
:1009E0002F04779A789480E00895B898C098BB9ABD
:1009F000C39A80E00E94D80408951F920F920FB608
:100A00000F920BB60F9211242F933F934F935F9346
:100A10006F937F938F939F93AF93BF93EF93FF93C6
:100A20009FB1209131042927209331048091300413
:100A30008823B1F490930F049C3130F0109211048C
:100A400010920F0491E009C0492F50E02091130447
:100A500030E042175307FCF09F5F909313041BC0D4
:100A6000482F50E060910F0470E0641775072CF078
:100A70004D5E5B4FFA0190830EC0415050404617C7
:100A8000570749F4222339F0909110049F5F909307
:100A9000100410920F0490911104891750F4E82F5C
:100AA000F0E0EC50FC4F20812FB990912F04922759
:100AB00011C0891731F490912F049FB910922F041F
:100AC0000BC090911304891758F49FEF9FB9909130
:100AD0002F04909590932F048F5F8093300411C062
:100AE000B898C0981DB8B898C098809112048F5FCC
:100AF00080931204789480910F040E94E30C0E946A
:100B0000D804FF91EF91BF91AF919F918F917F9109
:100B10006F915F914F913F912F910F900BBE0F906E
:100B20000FBE0F901F901895809135040895809105
:100B30003E040895809332040895982F9052903681
:100B400008F080E8805290E0FC01EE0FFF1FE80FF4
:100B5000F91FEE0FFF1FE456FE4F90818091340481
:100B6000882309F49FE180E020E090FD8F5F2F5FF4
:100B7000253011F09695F9CF08951F93CF93DF9309
:100B8000EC0110E005C021960E949D058F5F180FB3
:100B900088818823C1F7812FDF91CF911F9108951C
:100BA0001F93CF93DF93EC0110E007C02196F9016A
:100BB00084910E949D058F5F180F9E01FE01949104
:100BC0009923A1F7812FDF91CF911F9108958093F1
:100BD00034040895809134040895863130F46830E7
:100BE00020F46093330480933F0408950F931F9380
:100BF000DF93CF930F92CDB7DEB7182F68548830AC
:100C000018F580E069830E94A00380E069810E945A
:100C10001C0380E00E94A003612F660F660F660F21
:100C2000605C80E00E941C0306E314E082E00E9406
:100C3000A00382E0F80161918F010E941C03F4E09F
:100C40000E331F0799F723C0185081E069830E9473
:100C5000A00381E069810E941C0381E00E94A0033F
:100C6000612F660F660F660F605C81E00E941C03B7
:100C700006E314E083E00E94A00383E0F8016191A1
:100C80008F010E941C03F4E00E331F0799F70F90A9
:100C9000CF91DF911F910F910895FF920F931F93B2
:100CA000F82E18EB80E00E94A00381E00E94A003D0
:100CB00080E0612F0E941C0381E0612F0E941C03D1
:100CC00000E082E00E94A00383E00E94A00382E093
:100CD0006F2D0E941C0383E06F2D0E941C030F5F89
:100CE000003479F71F5F103CE9F680E00E94A00312
:100CF00081E00E94A00380E068EB0E941C0381E079
:100D000068EB0E941C031F910F91FF90089580E0F3
:100D10000E944D061092330410923F04089580E023
:100D20000E94A00380E06FE30E941C0380E00E9409
:100D3000A00380E060EC0E941C0380E00E94A003FE
:100D400080E060E40E941C0380E00E94A00380E039
:100D500068EB0E941C0381E00E94A00381E06FE326
:100D60000E941C0381E00E94A00381E060EC0E94CD
:100D70001C0381E00E94A00381E060E40E941C0348
:100D800081E00E94A00381E068EB0E941C0380E0E8
:100D90000E944D0681E08093320408950F931F93C3
:100DA000182F062F8093350460933E0480E00E9444
:100DB000A00381E00E94A0030695069506950854BD
:100DC00080E0602F0E941C0381E0602F0E941C03C2
:100DD00080E00E94A00381E00E94A003113438F05B
:100DE00080E060E40E941C0381E0612F07C0612F56
:100DF000605C80E00E941C0381E060E40E941C03B0
:100E00001F910F910895EF92FF920F931F93CF932D
:100E1000DF9319EB47C00830E8F480E00E94A0039C
:100E200080E0612F0E941C0380E00E94A0036F2DD0
:100E3000605C80E00E941C0382E00E945F03C6E3C6
:100E4000D4E082E00E945F03899384E0CE33D80728
:100E5000C1F71BC081E00E94A00381E0612F0E94C6
:100E60001C0381E00E94A00381E06F2D0E941C03FF
:100E700083E00E945F03C6E3D4E083E00E945F0347
:100E8000899384E0CE33D807C1F7802F6E2D0E945E
:100E9000F6050F5F88E0F80E003109F0BCCF1F5F48
:100EA000103C31F0FF2400E037E4E32EE10EB3CF35
:100EB000E6E3F4E0119284E0EE33F807D9F710E0AE
:100EC000812F67E00E94F6051F5F1031C9F78091FE
:100ED0003304882319F0815080933304DF91CF913C
:100EE0001F910F91FF90EF900895EF92FF920F9353
:100EF0001F93E82E162F8091350487FD39C000E03E
:100F0000803408F001E0802F0E94A00342E0F42E1C
:100F1000F00E8F2D0E945F038F2D0E945F03909132
:100F2000320492FF02C0E0949B7FE122992319F4DE
:100F30001E2D182B08C0913021F4109518231E295E
:100F400002C01E2D1827802F0E94A0036091350437
:100F50006064802F0E941C03802F0E94A0038F2DAD
:100F6000612F0E941C03809135048F5F80933504AC
:100F70001F910F91FF90EF90089590913E0497700C
:100F800061E070E002C0660F771F9A95E2F7882350
:100F900011F0862F02C0862F60E00E947507089529
:100FA0002F923F924F925F926F927F928F929F9279
:100FB000AF92BF92CF92DF92EF92FF920F931F9367
:100FC000DF93CF9300D000D000D0CDB7DEB7082F8D
:100FD000162F5A83498360903504E0903E048E2D8D
:100FE00087702FEF30E0F22E01C0FF0C8A95EAF7F0
:100FF000802F90E0019768E070E00E9461166F5FBB
:10100000A62EBB24C50173E0880F991F7A95E1F7DE
:1010100044245524481A590ACC2468E0762E5FEF00
:10102000852E912CBC82AB8271C08E2D8770D72CFF
:10103000D81A1D1548F48D2D811B940102C03595D9
:1010400027958A95E2F7F2228D2D8C0D90E08A9DEE
:1010500010018B9D300C9A9D300C112480E090E0A3
:101060009E838D8343C04D815E81477050704115D2
:10107000510571F5E695E695E695C1018E0F911D36
:10108000FC01A981BA81EA0FFB1FE40DF51D20E0E8
:1010900030E06D817E819491A6E3B4E08C918695D9
:1010A0008C9390FF02C080688C93119684E0AE33DD
:1010B000B80711F09695F2CF2F5F3F4F28303105DA
:1010C00029F0AB81BC81EA0FFB1FE5CF7E836D83E6
:1010D0004A5C5B4FFA0180818F216F2D0E9475075A
:1010E0002D813E812F5F3F4F3E832D83ED81E017A1
:1010F00008F4B9CF1D1508F4D12E1D19ED0CCD0C37
:10110000862D6E2D0E94CE06FF24FA94112309F03D
:101110008CCF26960FB6F894DEBF0FBECDBFCF9111
:10112000DF911F910F91FF90EF90DF90CF90BF90D4
:10113000AF909F908F907F906F905F904F903F9077
:101140002F9008952F923F924F925F926F927F92CD
:101150008F929F92AF92BF92CF92DF92EF92FF92C7
:101160000F931F93DF93CF9300D000D000D0CDB763
:10117000DEB7082F162F5A83498360903504E0901C
:101180003E048E2D87702FEF30E0F22E01C0FF0C51
:101190008A95EAF7802F90E0019768E070E00E945E
:1011A00061166F5FA62EBB24C501A3E0880F991FAF
:1011B000AA95E1F744245524481A590ACC24F8E0AA
:1011C0007F2EEFEF8E2E912CBC82AB8271C08E2DC4
:1011D0008770D72CD81A1D1548F48D2D811B9401CA
:1011E00002C0359527958A95E2F7F2228D2D8C0D58
:1011F00090E08A9D10018B9D300C9A9D300C11243B
:1012000080E090E09E838D8343C04D815E81477076
:1012100050704115510571F5E695E695E695C101C9
:101220008E0F911DFC01A981BA81EA0FFB1FE40D0D
:10123000F51D20E030E06D817E819081A6E3B4E071
:101240008C9186958C9390FF02C080688C93119648
:1012500084E0AE33B80711F09695F2CF2F5F3F4F81
:101260002830310529F0AB81BC81EA0FFB1FE5CFA7
:101270007E836D834A5C5B4FFA0180818F216F2DE5
:101280000E9475072D813E812F5F3F4F3E832D8346
:10129000ED81E01708F4B9CF1D1508F4D12E1D1902
:1012A000ED0CCD0C862D6E2D0E94CE06FF24FA94F7
:1012B000112309F08CCF26960FB6F894DEBF0FBE2F
:1012C000CDBFCF91DF911F910F91FF90EF90DF90F5
:1012D000CF90BF90AF909F908F907F906F905F90D6
:1012E0004F903F902F900895AF92BF92CF92DF9290
:1012F000EF92FF920F931F93CF93DF93A82E162F99
:10130000B0903504F0903E048F2D87702FEF30E0C1
:10131000022F01C0000F8A95EAF7B8E0CB2ECFEF7D
:10132000D0E022C08F2D8770EC2CE81A1E1548F4EF
:101330008E2D811B9E0102C0359527958A95E2F777
:101340000223DA2C05C0802F602F0E947507DA94E3
:10135000DD20C9F71E1508F4E12E1E19FE0C8B2D99
:101360006F2D0E94CE060FEF1123E1F6DF91CF9192
:101370001F910F91FF90EF90DF90CF90BF90AF90B3
:101380000895682F81E00E94740908950F931F93B8
:10139000182F80913E04877021E030E0022F01C0B9
:1013A000000F8A95EAF705C0802F602F0E9475070D
:1013B00011501123C9F71F910F9108959F92AF9279
:1013C000BF92CF92DF92EF92FF920F931F93082F5D
:1013D000162FF0903504E0903E048F1561F4E61668
:1013E00018F4862F8E1904C00E94CE068E2D811B04
:1013F0000E94C1095EC0DE2C6E1559F4F81610F477
:101400008F1904C00E94CE068F2D801B0E94C60932
:1014100050C08F1528F4AF2CA81A99249A9409C0AB
:10142000F81618F09924AA2404C0A82EAF189924FD
:1014300093941E1528F4BE2CB11ACC24CA9409C06A
:10144000E11618F0CC24BB2404C0B12EBE18CC2465
:10145000C39481E00E94BD07BA14B0F4EA2CE6946C
:10146000E194F90CEB0C1E1414F4EA18DC0C8F2D2B
:101470006D2D0E94CE0681E00E94BD07F90C8F2DD4
:101480008919801779F715C0DB2CD694D194EC0C10
:10149000DA0C1D1414F4DB18F90C8F2D6E2D0E943C
:1014A000CE0681E00E94BD07EC0C8E2D8C198117B1
:1014B00079F7802F612F0E94CE061F910F91FF9028
:1014C000EF90DF90CF90BF90AF909F9008958F9254
:1014D0009F92AF92BF92CF92DF92EF92FF920F93C3
:1014E0001F93CF93DF93062F982F9052903608F0DA
:1014F00080E8805296E0899FE0011124C456DE4FB7
:10150000188180913404882309F41FE1E02EFF2420
:10151000E7FCF0948FEF90E06C010E2C02C0CC0C35
:10152000DD1C0A94E2F7AA24BB24AE18BF080A2CDB
:1015300002C0959587950A94E2F7D82E85E0882E0B
:10154000912C8C0E9D1E10FF16C0898107FD09C0CD
:1015500090E00E2C02C0880F991F0A94E2F76C2DC0
:1015600008C090E00A2C02C0959587950A94E2F78E
:101570006D2D0E9475072196C815D90511F0169595
:10158000E2CF07FD03C080E06C2D02C080E06D2D2E
:101590000E947507DF91CF911F910F91FF90EF90FF
:1015A000DF90CF90BF90AF909F908F900895FF9263
:1015B0000F931F93082FF090350410913E0417707D
:1015C000612F0E94670A112391F060913E04685FC9
:1015D0008F2D0E94CE06612F6850802F0E94670ACF
:1015E00060913E046850809135040E94CE061F91A0
:1015F0000F91FF9008951F93CF93DF93EC0110920A
:10160000340436C01A3069F410923F0480913304D8
:101610008F5F80933304883059F581E00E9403077F
:1016200027C01D3029F180913F04853160F0109270
:101630003F04809133048F5F80933304883019F422
:1016400081E00E94030790913F04892F880F890F42
:1016500060913304660F660F660F880F0E94CE06F6
:10166000812F0E94D70A80913F048F5F80933F04AF
:101670001991112339F6DF91CF911F910895CF93DE
:10168000DF93EC0105C02196F90184910E94D70AED
:101690009E01FE0194919923B1F7DF91CF910895B6
:1016A000CF93DF93EC0103C021960E94D70A888173
:1016B0008823D1F7DF91CF91089590E0282F30E073
:1016C000F90183E0EE0FFF1F8A95E1F7E21BF30BB0
:1016D000EA5BFB4F80818F3F09F091E0892F0895ED
:1016E000F89490917E0480E0EEE7F4E02291820F7E
:1016F000911D9093600480935F04938180E0228128
:10170000820F911D9093620480936104958180E023
:101710002481820F911D90936404809363049781C8
:1017200080E02681820F911D90936604809365046A
:10173000918580E02085820F911D909368048093AD
:1017400067047894F89420918704809142049091E2
:101750004304820F911D3091880420E0820F931F73
:1017600090935C0480935B042091890480914004F1
:1017700090914104820F911D30918A0420E0820FE4
:10178000931F909374048093730490918C0480E071
:1017900020918B04820F911D90939C0480939B0455
:1017A00090918E0480E020918D04820F911D909382
:1017B0007204809371049091900480E020918F04D2
:1017C000820F911D9093450480934404909192045C
:1017D00080E020919104820F911D90937C0480936E
:1017E0007B047894F8949091950480E0209194047F
:1017F000820F911D90935E0480935D0490919704F5
:1018000080E020919604820F911D9093990480931B
:101810009804789481E00895F89481E080934604D8
:1018200078940895F8948AE080934604789481E04F
:101830000895F89425E020934604809347049093FC
:1018400048046093490470934A04789481E00895B1
:10185000F89422E020934604809347049093480430
:101860006093490470934A04789481E0089520912C
:10187000420430914304FC01E21BF30B9F01809171
:10188000400490914104681B790BF89483E08093A5
:101890004604E093470430934804609349047093EE
:1018A0004A0440934B0450934C04789481E008958B
:1018B000F89424E0209346048093470490934804CE
:1018C0006093490470934A0440934B0450934C0432
:1018D000789481E0089578949091540420E137E25F
:1018E0002150304011F09F3FD9F7F89496E0909343
:1018F000540480935504609356044093570478949D
:1019000081E0089581E00895F89430918A0420E000
:1019100040918904F901E40FF11DAF013091880471
:1019200020E0E09187042E0F311DFC01E21BF30B38
:10193000F0934304E09342049B01241B350B309346
:1019400041042093400490935C0480935B04709363
:10195000740460937304789481E0089578942091DE
:101960004D0480E197E2019711F02F3FE1F7F894E1
:1019700088E080934D04789481E0089578942091D4
:101980004D0480E197E2019711F02F3FE1F7F894C1
:1019900087E080934D04789481E008957894409195
:1019A0004D0420E137E22150304011F04F3FD9F78C
:1019B000F89429E020934D0480934E0490934F04B3
:1019C000789481E0089590919A049F5F90939A048F
:1019D0008B3141F4ADE7B4E0E4E1F4E001900D9225
:1019E0008150E1F78FEF809302048093FB03809393
:1019F000F403809146048F3F11F480E00DC0A4EF02
:101A0000B3E0E6E4F4E087E001900D928150E1F765
:101A10008FEF8093460487E090914D049F3F79F0CB
:101A2000E82FF0E0EC50FC4FADE4B4E097E00D900F
:101A300001929150E1F79FEF90934D04895F90914F
:101A400054049F3F81F0E82FF0E0EC50FC4FA4E5F8
:101A5000B4E087E00D9001928150E1F78FEF809321
:101A6000540485E10895882311F487E0089585E101
:101A70000895CF93DF93CDE9D4E02091A504309170
:101A8000A60488819981281B390B40E050E060E072
:101A900070E080E190E00E9474163093DD032093A3
:101AA000DC032A853B858A819B81281B390B40E01A
:101AB00050E060E070E080E190E00E9474163093A6
:101AC000DF032093DE032C853D858C819D81281BBF
:101AD000390B40E050E060E070E080E190E00E946F
:101AE00074163093E1032093E0032E853F858E81A9
:101AF0009F81281B390B40E050E060E070E080E1FE
:101B000090E00E9474163093E3032093E203DF9188
:101B1000CF9108958DE994E060E070E040E150E0FD
:101B20000E94621808958DE994E060E070E040E161
:101B300050E00E94521880919D0490919E042FEFD6
:101B40008F3F920711F510929E0410929D041092FF
:101B5000A00410929F041092A2041092A10410926B
:101B6000A4041092A30480E091E09093A6048093D3
:101B7000A5049093A8048093A7049093AA0480934B
:101B8000A9049093AC048093AB040E94390D08958E
:101B9000CF93DF9382E00E940D11CFEFD3E09E013F
:101BA000281B390B3093AE042093AD0483E00E94D0
:101BB0000D119E01281B390B3093B0042093AF0404
:101BC00081E00E940D119E01281B390B3093B20455
:101BD0002093B10480E00E940D11C81BD90BD09353
:101BE000B404C093B30480E00E940D11C81BD90B4C
:101BF000C150DC4FD093B404C093B304C091B1047E
:101C0000D091B20481E00E940D11C150DC4FC81B7D
:101C1000D90BD093B204C093B104C091AF04D0915A
:101C2000B00483E00E940D11C150DC4FC81BD90BDA
:101C3000D093B004C093AF04C091AD04D091AE0472
:101C400082E00E940D11C150DC4FC81BD90BD0930C
:101C5000AE04C093AD04DF91CF91089580916200EE
:101C60008F7B8093620081E090E00E94CE040E940E
:101C7000C80D8091AD049091AE049093B60480930A
:101C8000B5048091AF049091B0049093B804809310
:101C9000B7048091B1049091B2049093BA048093F8
:101CA000B9048091B3049091B4049093BC048093E0
:101CB000BB048091620080648093620081E090E0C8
:101CC0000E94CE040E94C80D2091AD043091AE0454
:101CD0008091B5049091B6042817390708F4C9011A
:101CE000281B390B3093AE042093AD042091AF0430
:101CF0003091B0048091B7049091B8042817390747
:101D000008F4C901281B390B3093B0042093AF04A9
:101D10002091B1043091B2048091B9049091BA0439
:101D20002817390708F4C901281B390B3093B2046E
:101D30002093B1042091B3043091B4048091BB048A
:101D40009091BC042817390708F4C901281B390BE6
:101D50003093B4042093B30408951F931092A60403
:101D60001092A5041092A8041092A7041092AA043D
:101D70001092A9041092AC041092AB0410E00E94DF
:101D80002E0E8091AD049091AE042091A504309167
:101D9000A604820F931F9093A6048093A5048091BC
:101DA000AF049091B0042091A7043091A804820F51
:101DB000931F9093A8048093A7048091B1049091FD
:101DC000B2042091A9043091AA04820F931F90932A
:101DD000AA048093A9048091B3049091B404209143
:101DE000AB043091AC04820F931F9093AC048093AA
:101DF000AB041F5F103119F60E94390D1F91089531
:101E00001F9310929E0410929D041092A0041092B1
:101E10009F041092A2041092A1041092A4041092A4
:101E2000A30410E00E942E0E8091AD049091AE04A8
:101E300020919D0430919E04820F931F90939E04E5
:101E400080939D048091AF049091B00420919F04F1
:101E50003091A004820F931F9093A00480939F045D
:101E60008091B1049091B2042091A1043091A20418
:101E7000820F931F9093A2048093A1048091B304D6
:101E80009091B4042091A3043091A404820F931F75
:101E90009093A4048093A3041F5F103119F60E944D
:101EA000390D1F9108952F923F924F925F926F923A
:101EB0007F928F929F92AF92BF92CF92DF92EF92DA
:101EC000FF920F931F930E942E0EE090DC03F09080
:101ED000DD0300E010E080919D0490919E0454E0A9
:101EE000969587955A95E1F76091AD047091AE048F
:101EF000681B790B80E090E0A80197010E944216D0
:101F0000672F782F892F99277093AE046093AD04C3
:101F1000A090DE03B090DF03CC24DD2480919F04E9
:101F20009091A00434E0969587953A95E1F76091F9
:101F3000AF047091B004681B790B80E090E0A601BB
:101F400095010E944216672F782F892F9927709349
:101F5000B0046093AF046090E0037090E1038824C4
:101F600099248091A1049091A204B4E0969587955C
:101F7000BA95E1F76091B1047091B204681B790BD6
:101F800080E090E0A40193010E944216672F782F11
:101F9000892F99277093B2046093B1042090E203D3
:101FA0003090E303442455248091A3049091A40429
:101FB000F4E096958795FA95E1F76091B3047091F6
:101FC000B404681B790B80E090E0A20191010E94AB
:101FD0004216672F782F892F99277093B404609346
:101FE000B3046091B5047091B60480E090E0A8015C
:101FF00097010E944216672F782F892F9927709397
:10200000B6046093B5046091B7047091B80480E0A1
:1020100090E0A60195010E944216672F782F892F24
:1020200099277093B8046093B7046091B9047091D4
:10203000BA0480E090E0A40193010E944216672F49
:10204000782F892F99277093BA046093B90460910F
:10205000BB047091BC0480E090E0A20191010E9459
:102060004216672F782F892F99277093BC046093AD
:10207000BB041F910F91FF90EF90DF90CF90BF9026
:10208000AF909F908F907F906F905F904F903F9018
:102090002F9008950E94930DE2E6F0E080818F7BFF
:1020A0008083E1E6F0E080818064808381E00E94AB
:1020B000FA1080E00E94FA1082E00E94FA1083E099
:1020C0000E94FA10089587E00E940D119093BE04BB
:1020D0008093BD0408958F9A97988AE090E00E94BB
:1020E000CE04979A84E690E00E94CE040895BF9AA9
:1020F000C79ABD9ABE9A8FEF82B984BB0895482FC4
:1021000080FF0BC095B321E030E0062E02C0220F05
:10211000331F0A94E2F7922B0CC085B321E030E024
:10212000062E02C0220F331F0A94E2F7922F9095D9
:10213000982395BB41FF0AC083B121E030E002C083
:10214000220F331F6A95E2F7822B0AC023B181E088
:1021500090E002C0880F991F6A95E2F7809582236C
:1021600083B908959093ED038093EC0308958091D3
:10217000EC039091ED0308959093E7038093E603B9
:1021800008958091E6039091E70308959093E90301
:102190008093E80308958091E8039091E9030895FE
:1021A000BC9A089545E322C0C498282F392F0AC04D
:1021B00061507040542F5A95F1F76115710529F05F
:1021C000215030402115310599F7C49A282F392F15
:1021D00007C06150704021503040542F5A95F1F79C
:1021E0006115710519F02115310599F76115710512
:1021F000D9F60895E1E6F0E0908121E030E002C0F8
:10220000220F331F8A95E2F7209592239083E2E60E
:10221000F0E0808182238083089590E497B997B19C
:102220008770892B87B987EC86B901C00000369981
:10223000FDCF84B195B1392F20E0280F311D809159
:10224000BF049091C004820F931F9093C0048093A9
:10225000BF04C90108958091BF049091C0040895FE
:102260005058BB27AA270ED0DCC0CDD030F0D2D03A
:1022700020F031F49F3F11F41EF4C2C00EF4E0953B
:10228000E7FBB8C0E92FDED080F3BA176207730707
:102290008407950718F071F49EF5F6C00EF4E095EA
:1022A0000B2EBA2FA02D0B01B90190010C01CA0110
:1022B000A0011124FF27591B99F0593F50F4503EBB
:1022C00068F11A16F040A22F232F342F4427585FAD
:1022D000F3CF469537952795A795F0405395C9F7C5
:1022E0007EF41F16BA0B620B730B840BBAF091507D
:1022F000A1F0FF0FBB1F661F771F881FC2F70EC01C
:10230000BA0F621F731F841F48F4879577956795EE
:10231000B795F7959E3F08F0B3CF9395880F08F0D7
:102320009927EE0F97958795089540D008F481E09E
:102330000895E89409C097FB3EF4909580957095B8
:1023400061957F4F8F4F9F4F9923A9F0F92F96E901
:10235000BB279395F695879577956795B795F11176
:10236000F8CFFAF4BB0F11F460FF1BC06F5F7F4F13
:102370008F4F9F4F16C0882311F096E911C0772325
:1023800021F09EE8872F762F05C0662371F096E82E
:10239000862F70E060E02AF09A95660F771F881FFD
:1023A000DAF7880F9695879597F90895990F0008A1
:1023B000550FAA0BE0E8FEEF16161706E807F90717
:1023C000C0F012161306E407F50798F0621B730BB2
:1023D000840B950B39F40A2661F0232B242B252B33
:1023E00021F408950A2609F4A140A6958FEF811DD6
:1023F000811D089597F99F6780E870E060E0089577
:102400009FEF80EC089500240A941616170618060C
:102410000906089500240A941216130614060506E8
:102420000895092E0394000C11F4882352F0BB0F79
:1024300040F4BF2B11F460FF04C06F5F7F4F8F4FDC
:102440009F4F089557FD9058440F551F59F05F3F17
:1024500071F04795880F97FB991F61F09F3F79F0C6
:1024600087950895121613061406551FF2CF469548
:10247000F1DF08C0161617061806991FF1CF8695CA
:102480007105610508940895E894BB2766277727AE
:10249000CB0197F908950BD0C4CFB5DF28F0BADF90
:1024A00018F0952309F0A6CFABCF1124EECFCADFE9
:1024B000A0F3959FD1F3950F50E0551F629FF00157
:1024C000729FBB27F00DB11D639FAA27F00DB11DB0
:1024D000AA1F649F6627B00DA11D661F829F222739
:1024E000B00DA11D621F739FB00DA11D621F839FC0
:1024F000A00D611D221F749F3327A00D611D231F96
:10250000849F600D211D822F762F6A2F11249F57E3
:1025100050408AF0E1F088234AF0EE0FFF1FBB1F06
:10252000661F771F881F91505040A9F79E3F5105A5
:1025300070F060CFAACF5F3FECF3983EDCF3869556
:1025400077956795B795F795E7959F5FC1F7FE2B50
:10255000880F911D9695879597F908952F923F9230
:102560004F925F926F927F928F929F92AF92BF92A3
:10257000CF92DF92EF92FF920F931F93DF93CF934F
:10258000CDB7DEB761970FB6F894DEBF0FBECDBFF3
:102590006C017D876C875A01FC011782168283814A
:1025A00081FD03C02FEF3FEF53C31E010894211C90
:1025B000311CF6019381EC85FD8593FD859193FF98
:1025C0008191FD87EC87882309F43FC3853241F46C
:1025D00093FD859193FF8191FD87EC87853229F4E6
:1025E00090E0B6010E949817E4CF10E0FF2400E0CD
:1025F0000032B0F48B3269F08C3228F4803251F022
:10260000833271F40BC08D3239F0803349F40160AC
:102610002CC00260046029C0086027C0006125C08A
:1026200007FD2EC0282F20532A3098F406FF08C03B
:10263000812F880F182F110F110F180F120F15C0AF
:102640008F2D880FF82EFF0CFF0CF80EF20E006293
:102650000CC08E3221F406FDF8C2006406C08C3630
:1026600011F4006802C0883659F4EC85FD8593FDAD
:10267000859193FF8191FD87EC87882309F0B8CF7E
:10268000982F9554933018F40061805E06C0982FFF
:102690009556933008F09BC10F7E06FF16E04FE37E
:1026A000E42EE022853619F4F0E4EF2A07C08636DE
:1026B00019F420E8E22A02C011111150E7FE0AC005
:1026C0001C3320F027E03CE3932E0BC0912E939413
:1026D00027E007C0183018F027E017E001C0212FCD
:1026E0009924A5014C5F5F4F598B488BF5016081A0
:1026F000718182819381A101092D0E94AA165C013A
:102700006980262D30E03F872E8760FE05C03E851C
:1027100033FD02C00DE209C0E1FE02C00BE205C0BC
:10272000E2FC02C000E001C000E28E859F858C7053
:1027300090700097C1F1002311F483E001C084E0A0
:102740008F1510F0FF240AC0F81AE3FC07C080E2DE
:1027500090E0B6010E949817FA94C9F7002329F077
:10276000802F90E0B6010E9498174E8543FF03C06A
:1027700005E910E00EC009E910E00BC0A114B10496
:1027800009F0805290E0B6010E9498170F5F1F4F2A
:1027900005C0AE2CBB2450E1A522BB24F8018491D6
:1027A000882361F711C1E7FE13C09A0CFE85F4FF80
:1027B00004C08A81813309F49A9419141CF0992475
:1027C00093942DC028E0291550F598E0992E27C044
:1027D000E6FC25C0812F90E08A159B054CF03CEF6C
:1027E000A3163FEFB30624F040E8E42A01C01150DD
:1027F000112349F0E2E0F0E0EC0FFD1FE10FF11DC5
:1028000080818033A1F3E7FE0AC0912E9394812F3B
:1028100090E0A816B90614F010E001C01A19E7FC00
:1028200003C085E090E008C01A141B041CF081E08E
:1028300090E002C0C501019601110196112331F00B
:10284000212F30E02F5F3F4F820F931F2F2D30E05D
:102850008217930714F0FF2401C0F81A4E2C552458
:10286000C20189709070009739F008C080E290E052
:10287000B6010E949817FA94FF20C1F7002329F0AF
:10288000802F90E0B6010E94981743FE07C008C051
:1028900080E390E0B6010E949817FA94FF20C1F7F8
:1028A000E7FE46C03501B7FE02C066247724250145
:1028B0000894411C511C46185708420C531CC50172
:1028C000891991094C01812F90E000271127081BDD
:1028D000190B9FEF69169FEF790629F48EE290E0BD
:1028E000B6010E949817A614B70434F08614970412
:1028F0001CF4F201808101C080E308946108710832
:102900000894411C511C601671062CF090E0B60131
:102910000E949817DECF6A147B0441F49A819633A3
:1029200020F4953319F4FE85F4FF81E390E049C06B
:102930008A81813311F02FEE622290E0B6010E946D
:102940009817112389F08EE290E0B6010E94981743
:1029500002E0F101E00FF11D0F5F808190E0B60110
:102960000E9498171150A9F744FC03C085E690E037
:1029700002C085E490E0B6010E949817B7FC05C03C
:10298000A114B10441F464FE06C0B094A194B1084E
:10299000B3948DE201C08BE290E0B6010E949817DB
:1029A00080E305C08F5F46EF5FEFA40EB51E5AE0CF
:1029B000A516B104BCF790E0B6010E949817C501B6
:1029C000C096B6010E949817A888B9883BC1833683
:1029D00031F0833781F0833509F056C020C0F5010E
:1029E00080818983410122E030E0A20EB31E81E0A4
:1029F000682E712C12C0F5018080918006FD03C005
:102A00006FEF7FEF02C0612F70E022E030E0A20E96
:102A1000B31EC4010E948D173C010F7713C0F5014E
:102A20008080918006FD03C06FEF7FEF02C0612FB1
:102A300070E022E030E0A20EB31EC4010E948217B3
:102A40003C01006803FF07C01BC080E290E0B601B4
:102A50000E949817FA948F2D90E068167906A8F3D3
:102A60000FC0F40107FD859107FF81914F0190E0B0
:102A7000B6010E949817F110FA9408946108710841
:102A80006114710471F7DEC0843611F0893649F59E
:102A900007FF08C0F501608171818281938124E084
:102AA00030E00AC0F50120813181B901882777FD26
:102AB0008095982F22E030E0A20EB31E0F7697FF8C
:102AC00008C090958095709561957F4F8F4F9F4F6F
:102AD0000068A1012AE030E00E94F417982E9218B5
:102AE0003BC0853721F40F7E2AE030E01CC0097F0F
:102AF0008F3661F0803720F4883509F0A6C00FC00A
:102B0000803739F0883709F0A0C004C028E030E0F1
:102B10000AC0006104FD046020E130E004C004FD4F
:102B2000066020E132E007FF08C0F5016081718195
:102B30008281938144E050E007C0F501608171819A
:102B400080E090E042E050E0A40EB51EA1010E949A
:102B5000F417982E92180F7706FF09C00E7F911672
:102B600030F404FF06C002FD04C00F7E02C0E92C51
:102B700001C0E12E802F04FF0CC0FE01E90DF11D04
:102B80009081903311F4097E07C0E39402FF04C0E2
:102B900002C0867809F0E394802E03FD14C000FF84
:102BA0000FC0EF1410F0192D0BC0192D1F0D1E1999
:102BB000EF2C06C080E290E0B6010E949817E394E3
:102BC000EF14C0F304C0EF1410F4FE1801C0FF248A
:102BD00084FE0FC080E390E0B6010E94981782FE49
:102BE0001DC081FC03C088E790E00EC088E590E03E
:102BF0000BC0882D867891F081FE02C08BE201C067
:102C000080E207FD8DE290E0B6010E94981706C0B1
:102C100080E390E0B6010E94981711509116C0F31E
:102C20009A94F101E90DF11D808190E0B6010E94B6
:102C300098179920A9F706C080E290E0B6010E949B
:102C40009817FA94FF20C1F7B4CCF601268137819A
:102C5000C90161960FB6F894DEBF0FBECDBFCF910C
:102C6000DF911F910F91FF90EF90DF90CF90BF9079
:102C7000AF909F908F907F906F905F904F903F901C
:102C80002F900895629FD001739FF001829FE00D05
:102C9000F11D649FE00DF11D929FF00D839FF00DDB
:102CA000749FF00D659FF00D9927729FB00DE11D87
:102CB000F91F639FB00DE11DF91FBD01CF01112464
:102CC000089597FB092E07260AD077FD04D02ED051
:102CD00006D000201AF4709561957F4F0895F6F79D
:102CE000909581959F4F0895A1E21A2EAA1BBB1BB8
:102CF000FD010DC0AA1FBB1FEE1FFF1FA217B307C8
:102D0000E407F50720F0A21BB30BE40BF50B661FDD
:102D1000771F881F991F1A9469F7609570958095A1
:102D200090959B01AC01BD01CF010895AA1BBB1B6F
:102D300051E107C0AA1FBB1FA617B70710F0A61BBB
:102D4000B70B881F991F5A95A9F780959095BC01DC
:102D5000CD010895283008F027E03327DA01990FD4
:102D6000311D87FD916000966105710539F432606F
:102D70002E5F3D9330E32A95E1F708959F3F30F0B1
:102D800080387105610509F03C5F3C5F3D939130EF
:102D900008F08068911DDF93CF931F930F93FF92EC
:102DA000EF92192F987F9695E92F96959695E90FB2
:102DB000FF27E950FF4F99273327EE24FF24A7016F
:102DC000E70105900894079428F4360FE71EF81ED3
:102DD000491F511D660F771F881F991F0694A1F781
:102DE0000590079428F4E70EF81E491F561FC11DD1
:102DF000770F881F991F661F0694A1F70590079407
:102E000028F4F80E491F561FC71FD11D880F991FA0
:102E1000661F771F0694A1F70590079420F4490FC9
:102E2000561FC71FD81F990F661F771F881F06944C
:102E3000A9F784911095177041F0D695C7955795CD
:102E40004795F794E7941A95C1F7EDE9F0E0689497
:102E50001590159135916591959105907FE2739547
:102E6000E118F10A430B560BC90BD009C0F7E10C6E
:102E7000F11E431F561FC91FD01D7EF4703311F47D
:102E80008A95E6CFE894015030F0080F0AF4002745
:102E9000021708F4202F2395022F7A3328F079E3C4
:102EA0007D932A95E9F710C07D932A9589F60694BB
:102EB00097956795379517951794E118F10A430B85
:102EC000560BC90BD00998F023957E9173957A33F0
:102ED00008F070E37C932013B8F77E9170617D93C6
:102EE00030F0839571E37D9370E32A95E1F7112427
:102EF000EF90FF900F911F91CF91DF91992787FD60
:102F000090950895FC010590615070400110D8F72C
:102F1000809590958E0F9F1F0895FC016150704021
:102F200001900110D8F7809590958E0F9F1F0895FE
:102F30000F931F93CF93DF938C01EB018B8181FF64
:102F40001BC082FF0DC02E813F818C819D8128177F
:102F5000390764F4E881F9810193F983E88306C0B5
:102F6000E885F985802F0995009731F48E819F813E
:102F700001969F838E8302C00FEF1FEFC801DF9180
:102F8000CF911F910F9108950F931F93DF93CF93CC
:102F9000CDB7DEB72E970FB6F894DEBF0FBECDBF0C
:102FA0000D891E8986E08C831A8309838FEF9FE742
:102FB0009E838D839E01275E3F4FCE0101966F89D0
:102FC000788DA9010E94AE12EF81F885E00FF11F04
:102FD00010822E960FB6F894DEBF0FBECDBFCF91F4
:102FE000DF911F910F910895FA01AA27283051F11E
:102FF000203181F1E8946F936E7F6E5F7F4F8F4F2A
:103000009F4FAF4FB1E03ED0B4E03CD0670F781F88
:10301000891F9A1FA11D680F791F8A1F911DA11D6D
:103020006A0F711D811D911DA11D20D009F46894A6
:103030003F912AE0269F11243019305D3193DEF64E
:10304000CF010895462F4770405D4193B3E00FD004
:10305000C9F7F6CF462F4F70405D4A3318F0495DEF
:1030600031FD4052419302D0A9F7EACFB4E0A695D2
:103070009795879577956795BA95C9F700976105F4
:10308000710508959B01AC010A2E0694579547954A
:1030900037952795BA95C9F7620F731F841F951F3F
:1030A000A01D0895DC01CB01FC01E199FECF06C013
:1030B000FFBBEEBBE09A31960DB20D9241505040ED
:1030C000B8F70895DC01CB0103C02D910E946D1863
:1030D00041505040D0F70895262FE199FECF9FBB75
:1030E0008EBB2DBB0FB6F894E29AE19A0FBE019603
:0630F0000895F894FFCFE3
:1030F600507265737320533320666F722020005020
:103106007265737320533320746F202000626C61E4
:10311600636B2063616C6962726174696F6E2020F3
:103126000077686974652063616C696272617469AD
:103136006F6E20200073746F72652063616C696224
:10314600726174696F6E20200053656E736F722012
:1031560043616C6962726174696F6E0025342E3149
:1031660066562000537570706C793A2000506C6575
:103176006173652072656368617267650062617478
:103186007465726965732100000020410300000028
:1031960000000400005F00000E00070007001F1477
:1031A6007F147F141F242A7F2A121F2313086462A8
:1031B6001F36495522500600050300000E001C224A
:1031C60041000E0041221C001F14083E08141F086F
:1031D600083E08080600A06000000F080808080856
:1031E6000600606000000E00601C03001F3E51498F
:1031F600453E0E00427F40001F42615149461D2157
:1032060041454B311F1814127F101D27454545397E
:10321600173C4A4949301E01710905031D364949C3
:1032260049361D064949291E0600363600000600A5
:10323600AC6C00000F08142241000F14141414146F
:103246001E00412214081F02015109061F32497946
:10325600413E1F7C1211127C177F49494936173EA1
:10326600414141221F7F4141221C177F4949494163
:10327600177F09090901173E4149497A177F08084E
:10328600087F0E00417F41001F2040413F011F7F04
:1032960008142241177F404040401F7F020C027FE6
:1032A6001F7F0408107F173E4141413E177F0909E1
:1032B6000906173E414141BE1D7F09192946174699
:1032C600494949311F01017F0101173F4040403FF5
:1032D6001F1F2040201F1F3F4038403F1F63140818
:1032E60014631F07087008071F61514945430E0004
:1032F6007F4141000E00031C60000E0041417F002B
:103306000E04020102041F40404040400C0000032E
:103316000400172054545478177F4844443817380B
:10332600444444201D384444487F173854545418A4
:1033360017087E0901021718A4A4A478177F0804A9
:1033460004780E00447D40000D4080847D000F7F90
:10335600102844000E00417F40001F7C047804784A
:10336600177C0804047817384444443817FC24248E
:1033760024181718242424FC177C0804040817486A
:103386005454542017043F4440201D3C4040207CA8
:103396001F1C2040201C1F3C4030403C1F4428106E
:1033A6002844171CA0A0A07C1F4464544C440E0063
:1033B600083641000400007F00000E004136080078
:0C33C6001F02010204021FAA55AA55AA0A
:00000001FF
