:100000000C9449000C945B000C945B000C945B0016
:100010000C945B000C945B000C945B000C945B00F4
:100020000C945B000C945B000C945B000C945B00E4
:100030000C945B000C945B000C94C9000C945B0066
:100040000C945B000C945B000C945B000C945B00C4
:100050000C945B000C945B000C945B000C945B00B4
:100060000C945B000C945B000C945B000C945B00A4
:100070000C945B000C945B000C945B000C945B0094
:100080000C945B000C945B000C945B00322E3131BD
:10009000000011241FBECFEFD0E1DEBFCDBF21E0B5
:1000A000A0E0B1E001C01D92A231B207E1F70E94C9
:1000B0005D000C94EC010C940000CF93DF9300D012
:1000C000CDB7DEB778940E945A010E946D010E945C
:1000D00097001A8219820AC08981682F81E00E94E4
:1000E000750189819A8101969A83898389819A8190
:1000F000089794F380ED97E00E944F0180E890E02C
:100100000E94990180ED97E00E944F0180E094E009
:100110000E94AD0180ED97E00E944F0180E092E0E7
:100120000E94AD0180EA9FE00E944F01D2CF109261
:100130000901109208011092050110920401109219
:100140000A0110920B0110920C0110920D011092F5
:1001500001011092000110920301109202018FEF31
:1001600093E09093070180930601C598C698BD9AC5
:10017000BE9ABF9AC79A1DBC1CBC8AEA8FBD82E199
:100180008EBD80E094E097BD86BD87B7846087BF51
:1001900008951F920F920FB60F9211242F933F9341
:1001A0004F938F939F93AF93BF938091080190914A
:1001B00009019C01285E3F4F283E43E0340728F4A4
:1001C00030930901209308010FC0805D9340909304
:1001D0000901809308018091040190910501019625
:1001E0009093050180930401809104019091050191
:1001F0009C012F5F3F4F283E43E0340728F43093A3
:1002000005012093040119C0875E93409093050176
:100210008093040180910A0190910B01A0910C013F
:10022000B0910D010196A11DB11D80930A0190931B
:100230000B01A0930C01B0930D01809100019091EE
:1002400001018F3F23E0920710F080E094E09BBD16
:100250008ABD80910201909103018F3F43E0940792
:1002600010F080E094E099BD88BD809106019091E6
:1002700007018F3F23E0920710F080E094E0909315
:10028000790080937800BF91AF919F918F914F91AA
:100290003F912F910F900FBE0F901F9018950097D0
:1002A00041F0EFE9FFE03197F1F700C0000001975E
:1002B000F6CF08958F9A97988AE090E00E944F01B8
:1002C000979A84E690E00C944F0187E00E94C90160
:1002D00090930F0180930E010895BF9AC79ABD9A1B
:1002E000BE9A8FEF82B984BB089595B321E030E0C8
:1002F000062E01C0220F0A94EAF780FF02C0292BC4
:1003000002C02095292325BB23B181FF08C081E0CD
:1003100090E001C0880F6A95EAF7822B08C081E05F
:1003200090E001C0880F6A95EAF78095822383B92F
:100330000895909307018093060108958091060126
:100340009091070108959093010180930001089511
:100350008091000190910101089590930301809391
:100360000201089580910201909103010895E1E650
:10037000F0E0908121E030E001C0220F8A95EAF799
:10038000209592239083E2E6F0E080812823208369
:10039000089590E497B997B18770982B97B987EC37
:1003A00086B9369B02C00000FCCF24B185B190E035
:1003B000982F8827820F911D2091100130911101F3
:1003C000280F391F30931101209310010895809157
:0C03D0001001909111010895F894FFCFE6
:00000001FF
