:100000000C946D000C948C000C948C000C948C005F
:100010000C948C000C948C000C948C000C948C0030
:100020000C948C000C948C000C948C000C948C0020
:100030000C948C000C948C000C94520B0C948C003F
:100040000C948C000C949E020C948C000C948C00EC
:100050000C948C000C940E0C0C948C000C948C0062
:100060000C948C000C948C000C948C000C948C00E0
:100070000C948C000C948C000C948C000C948C00D0
:100080000C948C000C948C000C948C003A0C3F0C5B
:10009000440C490C4E0C530C580C5D0C650C6A0C4E
:1000A0006F0C790C7E0CA50CA70CB10CA50CA70C41
:1000B000A90CAB0CAD0CA90CAB0CAD0CAF0CB10C7E
:1000C000332E3300556E76657273696F6E656420EA
:1000D0006469726563746F72790011241FBECFEF7B
:1000E000D0E1DEBFCDBF13E0A0E0B1E0E0EDF2E291
:1000F00000E00BBF02C007900D92AA34B107D9F7F8
:1001000024E0AAE4B3E001C01D92A432B207E1F7F3
:100110000E940C010C9466110C940000CF93DF93A5
:10012000EC01072E000C880B990B0E947B0D20E040
:1001300030E040E45FE30E94070E29E23CED41EE2F
:1001400052E40E94070E20E030E040E252E40E94B8
:10015000D10C0E94430D27EF30E0261B370B81E0C6
:10016000C217D3070CF480E0DF91CF9108950F936D
:100170001F93CF93DF93CDB7DEB764970FB6F89494
:10018000DEBF0FBECDBF182F092F80E00E94B00345
:1001900060E080E00E947E0380E493E00E94E80437
:1001A0001A821982FE01339682E1DF011D928A953F
:1001B000E9F70F931F9386E493E09F938F938E014B
:1001C0000F5F1F4F1F930F930E947D0E6AE080E028
:1001D0000E947E03C8010E94E8040F900F900F90C8
:1001E0000F900F900F9064960FB6F894DEBF0FBE7D
:1001F000CDBFDF91CF911F910F91089578940E9408
:10020000B30A0E9497020E94D60A81E00E94FB0175
:100210000E9433050C94960A0E94FE0085E090E04F
:100220000E94B700C5E0D0E00E945209BE01809153
:10023000BC0390E00E948E00882319F00E94FC0904
:1002400004C0BE01CE010E94150A0E943301892B11
:1002500059F3C436D10511F4C0E0D0E02596CE01A3
:100260000E94B700E1CF84990EC08FE090E00E9419
:100270006A02849BFECF8FE090E00E946A0280B306
:100280008295817001C080E090E0089584990BC050
:1002900084E190E00E946A0280B382958F7091E0C1
:1002A0008927817001C080E090E0089590914A0311
:1002B000892790916500382F3170292F2E7F91E08A
:1002C0009327922B90936500909165009D7F31114B
:1002D00002C020E001C022E0922B90936500909133
:1002E0006500977F81FD02C080E001C088E0892B16
:1002F00080936500809165008F7E809365008FEF0D
:100300008ABB6BBB85E08A95F1F7000080916500A0
:1003100084608093650085E08A95F1F70000809104
:1003200065008B7F8093650085E08A95F1F700007A
:100330001BBA1ABA089590914A03892790916500D3
:10034000382F3170292F2E7F91E09327922B909395
:100350006500909165009D7F311102C020E001C0D1
:1003600022E0922B9093650090916500977F81FD2C
:1003700002C080E001C088E0892B809365008091F5
:1003800065008061809365001ABA85E08A95F1F76F
:1003900000008091650084608093650095E19A95E6
:1003A000F1F7000089B3909165009B7F9093650001
:1003B00095E09A95F1F7000008950F931F93CF935E
:1003C00090914B03911102C080E011C0C82FC17001
:1003D00000E010E08C2F0E949B010F5F1F4F87FFF2
:1003E00005C00F3F8FEF1807A9F7EECF81E0CF913F
:1003F0001F910F910895CF93C82F8FEF80934B03D8
:1004000010924A0380916400886080936400809118
:1004100064008061809364008091640084608093B4
:100420006400809164008160809364008091640026
:10043000826080936400B89A1ABA80916500877FC1
:1004400080936500809165008F7E80936500809128
:1004500065008B7F80936500809165008E7F80931F
:100460006500809165008D7F80936500C098979BA3
:1004700009C097988FE99FE00197F1F700C000004D
:10048000979A06C08FE99FE00197F1F700C000003E
:10049000C09A80E00E94DD01882391F081E00E94F3
:1004A000DD01882351F0C33031F4C0934B0381E068
:1004B00080934A0305C082E001C081E080934B0332
:1004C00080914B038F3F11F410924B0380914B03AB
:1004D000CF910895009741F0EFE9FFE03197F1F7F0
:1004E00000C000000197F6CF08958FB9909187035F
:1004F0008927809387030895109288038093690366
:1005000091E0980F90936B0396E9909387039093F3
:100510008903F894B09903C078940000FACF90EC66
:100520009DB90E947502779A789480E00895B898F2
:10053000C098BB9AC39A80E00C947C021F920F92E1
:100540000FB60F9211240BB60F922F933F934F9338
:100550005F936F937F938F939F93AF93BF93EF932B
:10056000FF938FB190918903982790938903E0912D
:100570008803E11116C0809367038C3130F010922C
:1005800069031092670381E009C0482F50E0209171
:100590006B0330E042175307FCF08F5F80936B03CF
:1005A0001BC02E2F30E04091670350E042175307E5
:1005B0002CF0D901A559BC4F8C930EC021503109A4
:1005C0004217530749F4992339F0809168038F5FEC
:1005D000809368031092670380916903E81728F4F9
:1005E000F0E0E45BFC4F80810AC0E81303C0809117
:1005F000870305C080916B03E81748F48FEF0E94D2
:100600007502809188038F5F8093880311C0B8982A
:10061000C0981DB8B898C09880916A038F5F809386
:100620006A037894809167030E94F1080E947C021B
:10063000FF91EF91BF91AF919F918F917F916F91BA
:100640005F914F913F912F910F900BBE0F900FBE76
:100650000F901F901895CF93DF93C82FD8EBD60F2C
:10066000883000F580E00E94DD016D2F80E00E945F
:10067000560180E00E94DD016C2F660F660F660F49
:10068000605C80E00E945601CEE8D3E082E00E94E8
:10069000DD01699182E00E94560183E0C639D807E6
:1006A000A9F720C0C85081E00E94DD016D2F81E0D4
:1006B0000E94560181E00E94DD01CC0FCC0FCC0FCF
:1006C00060E46C0F81E00E945601CEE8D3E083E045
:1006D0000E94DD01699183E00E94560183E0C639E2
:1006E000D807A9F7DF91CF91089580918D030895E0
:1006F00080919603089580938A030895CF93DF93A2
:10070000D82FC62F80938D036093960380E00E94BC
:10071000DD0181E00E94DD01C695C695C695C854ED
:100720006C2F80E00E9456016C2F81E00E945601E0
:1007300080E00E94DD0181E00E94DD0160E4D134AF
:1007400028F080E00E9456016D2F05C06D0F80E0FB
:100750000E94560160E481E0DF91CF910C94560134
:100760001F93CF93DF93182FC8EB80E00E94DD0129
:1007700081E00E94DD016C2F80E00E9456016C2F09
:1007800081E00E945601D0E482E00E94DD0183E016
:100790000E94DD01612F82E00E945601612F83E0FB
:1007A0000E945601D15081F7CF5FC03CF1F680E046
:1007B0000E94DD0181E00E94DD0168EB80E00E9483
:1007C000560168EB81E0DF91CF911F910C945601A7
:1007D0000F931F93CF93DF93D82FC62F80918D0354
:1007E00087FD37C011E0803408F410E0812F0E94AB
:1007F000DD0102E0010F802F0E949B01802F0E94EB
:100800009B0190918A0392FF02C0D0959B7FDC23CD
:10081000911102C0C82F04C0913021F4C095C823A3
:10082000CD2B02C0C82FCD27812F0E94DD01609102
:100830008D036064812F0E945601812F0E94DD018B
:100840006C2F802F0E94560180918D038F5F8093C3
:100850008D03DF91CF911F910F91089590EE980F26
:10086000903608F080E8805296E0899FF0011124CC
:10087000E050FF4F908180918C03811101C09FE176
:1008800025E080E090FD8F5F96952150D9F708957F
:100890007F928F929F92AF92BF92CF92DF92EF9210
:1008A000FF920F931F93CF93DF93C62F90EE980F75
:1008B000903608F080E8805226E0829FC001112423
:1008C000FC01EF5FFE4F7F01FC01E050FF4F908085
:1008D00080918C03811102C09FE1992EAC2E0C2EC9
:1008E000000CBB086FEF70E06B010C2E01C0CC0C4C
:1008F0000A94EAF78C2C002711270A191B09002EED
:1009000002C0759567950A94E2F7D62F85E0782E98
:1009100090FE15C0F7018081C7FD07C0682D0A2C25
:1009200001C0880F0A94EAF708C090E0002E02C0C8
:10093000959587950A94E2F76D2F0E94E8039694A7
:10094000FFEFEF1AFF0A7A947110E2CFC7FD02C0E1
:100950006C2D07C06FEF70E002C0759567950A9522
:10096000E2F780E0DF91CF911F910F91FF90EF9020
:10097000DF90CF90BF90AF909F908F907F900C941E
:10098000E8031F93CF93DF93D82F10918D03C0916D
:100990009603C7706C2F0E944804CC23A9F0609185
:1009A0009603685F812F0E947E0368EF6C0F8D2F86
:1009B0000E94480460919603685080918D03DF91F6
:1009C000CF911F910C947E03DF91CF911F910895D9
:1009D000CF93DF93EC018991882319F00E94C10421
:1009E000FACFDF91CF9108950F931F93CF938C018E
:1009F000C0E0F80181918F01882331F00E942E041C
:100A00008C0FC1E0C80FF5CF8C2FCF911F910F91A4
:100A10000895CF93DF93EC01CE01FE0124912223B0
:100A200031F02196FC0184910E94C104F5CFDF9141
:100A3000CF9108950F931F93CF938C01C0E0C8010D
:100A4000F8012491222351F00F5F1F4FFC01849184
:100A50000E942E048C0FC1E0C80FF1CF8C2FCF91D4
:100A60001F910F91089580E00E94DD016FE380E007
:100A70000E94560180E00E94DD0160EC80E00E944F
:100A8000560180E00E94DD0160E480E00E94560192
:100A900080E00E94DD0168EB80E00E94560181E069
:100AA0000E94DD016FE381E00E94560181E00E9417
:100AB000DD0160EC81E00E94560181E00E94DD01D1
:100AC00060E481E00E94560181E00E94DD0168EB54
:100AD00081E00E94560180E00E94B00381E0809393
:100AE0008A03089580938C03089580918C03089560
:100AF000CF93DF93909196039770C1E001C0CC0F24
:100B00009A95EAF7D82FDD2331F06C2F8C2F0E94B5
:100B1000E803D150F8CFDF91CF910895AF92BF9203
:100B2000CF92DF92EF92FF920F931F93CF93DF93B9
:100B3000B82EC62FE0908D0310919603812F8770F9
:100B4000DFEF01C0DD0F8A95EAF788E0A82ECC24FC
:100B5000CA94D12CCC2321F1812F87700A2D081B38
:100B6000C01748F4802F8C1B960102C0359527953D
:100B70008A95E2F7D223FB2CFF2031F06D2F8D2FC9
:100B80000E94E803FA94F8CF8C2F0C1708F4802FFA
:100B9000C81B180F612F8E2D0E947E03DFEFDACF66
:100BA000DF91CF911F910F91FF90EF90DF90CF9049
:100BB000BF90AF900895682F81E00C948E052F921E
:100BC0003F924F925F926F927F928F929F92AF92DD
:100BD000BF92CF92DF92EF92FF920F931F93CF932A
:100BE000DF93482ED62F5A0130908D0380909603C4
:100BF000882D87709FEF992E01C0990C8A95EAF78E
:100C0000242D30E0C901019797FD079623E09595C3
:100C100087952A95E1F7C1E0C80FEC2EF12C67010A
:100C200033E0CC0CDD1C3A95E1F7512C48E0242E42
:100C3000DD2309F456C0882D8770722C781AD715D9
:100C400050F4872D8D1B2FEF30E002C0359527958E
:100C50008A95E2F79222052D070DC09F800111248D
:100C6000612C641481F1862D877059F0E82FF0E033
:100C7000E257FC4F8081692D89210E94E80363942B
:100C8000F0CF962D969596959695F801E90FF11D62
:100C9000EC19FD09EA0DFB1D28E030E04081AEE8CB
:100CA000B3E09C91969540FD90689C934695119673
:100CB00066E973E06A177B07A1F7EE0DFF1D21506F
:100CC000310961F7D3CF8D2F7D1608F4872DD81BFE
:100CD000880E580E682D832D0E947E0399249A94C5
:100CE000A7CFDF91CF911F910F91FF90EF90DF90F1
:100CF000CF90BF90AF909F908F907F906F905F90BC
:100D00004F903F902F9008952F923F924F925F9275
:100D10006F927F928F929F92AF92BF92CF92DF920B
:100D2000EF92FF920F931F93CF93DF93482ED62F0E
:100D30004A0130908D0300919603802F87701FEF3A
:100D400001C0110F8A95EAF7242D30E0C9010197FF
:100D500097FD079623E0959587952A95E1F7C1E0E1
:100D6000C80FCC2ED12C560133E0AA0CBB1C3A95EF
:100D7000E1F7512C48E0242EDD2309F455C0802FE3
:100D80008770722C781AD71550F4872D8D1B2FEF92
:100D900030E002C0359527958A95E2F71223E52CBD
:100DA000E70CCE9D70011124612C641481F1862D15
:100DB000877059F0E82FF0E0E257FC4F8081612FF7
:100DC00081230E94E8036394F0CF962D9695969523
:100DD0009695F701E90FF11DEA19FB09E80DF91DD8
:100DE00028E030E04491AEE8B3E09C91969540FD58
:100DF00090689C934695119666E973E06A177B07A5
:100E0000A1F7EC0DFD1D2150310961F7D3CF8D2FD6
:100E10007D1608F4872DD81B080F580E602F832DE0
:100E20000E947E031FEFA8CFDF91CF911F910F91FA
:100E3000FF90EF90DF90CF90BF90AF909F908F90FA
:100E40007F906F905F904F903F902F90089590917A
:100E50009603977021E030E001C0220F9A95EAF7DF
:100E6000882311F0622F01C060E0822F0C94E80308
:100E7000BF92CF92DF92EF92FF920F931F93CF9387
:100E8000DF93182F062FD0918D0380919603D113F5
:100E90000FC0861720F4962F981B892F06C0C82FE5
:100EA000C61B812F0E947E038C2F0E94DB055AC037
:100EB000F82E68130DC0D11718F4812F8D1B05C0B3
:100EC000D11B812F0E947E038D2F0E9478054AC07E
:100ED0001D1728F4DD2ED11ACC24CA9409C0D117CD
:100EE00028F4D12EDD1ACC24C39402C0C12CD12CFD
:100EF000081728F4C82FC01BBB24BA9409C0801758
:100F000028F4C02FC81BBB24B39402C0B12CC0E08E
:100F100081E00E942707CD1598F4ED2CE694E1942A
:100F2000EC0EDC0D1E1414F4ED18FB0C6F2D8D2F40
:100F30000E947E0381E00E9427071D13F1CF12C09B
:100F4000EC2EE694E194ED0CFB0C1E1414F4EC1A58
:100F5000DC0D6F2D8D2F0E947E0381E00E942707FC
:100F60000F11F1CF602F812FDF91CF911F910F9142
:100F7000FF90EF90DF90CF90BF900C947E0380E0C5
:100F80000E94B00310928B03109297030895CF93A1
:100F900010928C03C0E060918B03660F660F660FA2
:100FA0008C2F0E947E0380E20E94C104CA5FCE376C
:100FB00091F7CF910895863130F4683020F4609332
:100FC0008B038093970308958091970308958091F0
:100FD0008B030895CF92DF92EF92FF920F931F93AE
:100FE000CF93DF93C9EB26E9C22E23E0D22E10E087
:100FF000D0E007E40C0FD83050F580E00E94DD010E
:101000006C2F80E00E94560180E00E94DD0160E4C8
:10101000610F80E00E94560182E00E949B019EE8E1
:10102000E92E93E0F92E82E00E949B01F701819363
:101030007F01F6E9EF16F3E0FF06A9F7602F8D2F89
:101040000E942B03DF5F185FD031A9F61FC081E03B
:101050000E94DD016C2F81E00E94560181E00E9418
:10106000DD01612F81E00E94560183E00E949B0117
:101070008EE8E82E83E0F82E83E00E949B01F701C2
:1010800081937F01CE16DF06B9F7D8CFCF5FC03C82
:1010900009F0ADCFEEE8F3E086E993E011928E1708
:1010A0009F07E1F7C0E067E08C2F0E942B03CF5F22
:1010B000C031C9F780918B03882319F08150809348
:1010C0008B03DF91CF911F910F91FF90EF90DF90F5
:1010D000CF900895CF938A3069F41092970380914E
:1010E0008B038F5F80938B03883061F581E0CF9114
:1010F0000C94EA078D3031F1C82F80919703853128
:1011000060F01092970380918B038F5F80938B0325
:10111000883019F481E00E94EA0760918B03660F22
:10112000660F660F80919703982F990F890F880F8C
:101130000E947E038C2F0E94C104809197038F5FD1
:1011400080939703CF91089510928C030C946A08B2
:101150000F931F93CF93DF9310928C03EC018C01BC
:10116000060F171FC017D10721F089910E946A0846
:10117000F9CFDF91CF911F910F910895CF93DF9316
:1011800010928C03EC018991882319F00E946A085F
:10119000FACFDF91CF910895CF93DF9310928C0314
:1011A000FC018491EF012196882321F00E946A08B6
:1011B000FE01F7CFDF91CF910895789420E137E2D7
:1011C00097E0899FF0011124E256FC4F215031092C
:1011D00019F080818F3FD1F781E0232B09F480E063
:1011E00008959091F2039F5F9093F2038B3141F445
:1011F000ECE6F3E0A5EDB3E001900D928A95E1F7FE
:101200008FEF80935A038093530380934C03909104
:101210009E039F3F69F097E0EEE9F3E0ACE4B3E0B2
:1012200001900D929A95E1F780939E0387E001C0AB
:1012300080E09091A5039F3F79F0A82FB0E0A45BD8
:10124000BC4F97E0E5EAF3E001900D929A95E1F743
:101250009FEF9093A503895F9091AC039F3F79F036
:10126000A82FB0E0A45BBC4F87E0ECEAF3E001906C
:101270000D928A95E1F78FEF8093AC0304C0811142
:1012800002C087E0089585E1089527E0829FC001AC
:101290001124FC01E256FC4F81E090819F3F09F44C
:1012A00080E00895F894A7EBB3E0E5EDF3E08181E9
:1012B00090E0982F88272081820F911D11969C9392
:1012C0008E93838190E0982F88272281820F911D31
:1012D00013969C938E931297858190E0982F882780
:1012E0002481820F911D15969C938E93149787816C
:1012F00090E0982F88272681820F911D17969C9346
:101300008E931697818590E0982F88272085820FED
:10131000911D19969C938E9318977894F894228532
:1013200080919A0390919B03AC01420F511D9385CC
:10133000892F90E0982F8827840F951F9093B403EE
:101340008093B30324858091980390919903AC0115
:10135000420F511D9585892F90E0982F8827840F83
:10136000951F9093CC038093CB03878590E0982FB3
:1013700088272685820F911D9093F4038093F303B1
:10138000818990E0982F88272089820F911D909362
:10139000CA038093C903838990E0982F8827228904
:1013A000820F911D90939D0380939C03858990E00B
:1013B000982F88272489820F911D9093D4038093BE
:1013C000D3037894F894808D90E0982F882727890C
:1013D000820F911D9093B6038093B503828D90E0A8
:1013E000982F8827218D820F911D9093F103809370
:1013F000F003789481E00895F89481E080939E034F
:1014000078940895F8948AE080939E03789481E01C
:101410000895F894EEE9F3E025E020838183928338
:1014200063837483789481E00895F894EEE9F3E09F
:1014300022E020838183928363837483789481E0A4
:10144000089520919A0330919B03821B930B209166
:10145000980330919903621B730BF894EEE9F3E063
:1014600023E020838183928363837483458356833F
:10147000789481E00895F894EEE9F3E024E0208385
:10148000818392836383748345835683789481E058
:1014900008951F93CF93DF93182FD62FC42F82E088
:1014A0000E94DD08F894EEE9F3E086E0868717876E
:1014B000D08BC18B789481E0DF91CF911F910895FB
:1014C00081E00895F894E5EDF3E0258530E0322FD2
:1014D00022274485240F311D438550E0542F442793
:1014E000E2854E0F511DFC01E41BF50BF0939B03AD
:1014F000E0939A03AB01421B530B50939903409323
:1015000098039093B4038093B3037093CC036093D8
:10151000CB03789481E0089581E00E94DD08F8947F
:1015200088E08093A503789481E0089581E00E948B
:10153000DD08F89487E08093A503789481E008950E
:10154000CF93DF93D82FC92F81E00E94DD08F89454
:10155000EEE9F3E089E08783D087C187789481E062
:10156000DF91CF910895CF93CFB7F8948F9A979842
:101570008FE39CE90197F1F700C00000979A9FEF75
:1015800021EE84E0915020408040E1F700C000004F
:101590000E94E80BCFBFCF91089578948CE00E9411
:1015A000F20B9093F6038093F5030895BF9AC79AC0
:1015B000BD9ABE9A8FEF82B984BB089595B321E09E
:1015C00030E0062E01C0220F0A94EAF780FF02C025
:1015D000292B02C02095292325BB23B181FF08C0F8
:1015E00081E090E001C0880F6A95EAF7822B08C07D
:1015F00081E090E001C0880F6A95EAF78095822328
:1016000083B908959093FE038093FD03089580911C
:10161000FD039091FE0308959093F8038093F703E0
:1016200008958091F7039091F80308959093FA0339
:101630008093F90308958091F9039091FA03089536
:10164000109200041092FF031092FC031092FB030F
:1016500010920104109202041092030410920404E8
:101660001092F8031092F7031092FA031092F90304
:101670008FEF93E09093FE038093FD03C598C69887
:10168000BD9ABE9ABF9AC79A1DBC1CBC8AEA8FBD80
:1016900082E18EBD80E094E097BD86BD87B784600F
:1016A00087BF08951F920F920FB60F9211242F93A8
:1016B0003F934F938F939F93AF93BF938091FF037B
:1016C000909100049C01285E3F4F283E43E0340780
:1016D00028F4309300042093FF030FC0805D9340F3
:1016E000909300048093FF038091FB039091FC038F
:1016F00001969093FC038093FB038091FB039091F0
:10170000FC0301969093FC038093FB038091FB0301
:101710009091FC03883E9340E8F08091FB03909108
:10172000FC03885E93409093FC038093FB038091BD
:10173000010490910204A0910304B0910404019665
:10174000A11DB11D8093010490930204A093030492
:10175000B09304048091F7039091F8038F3F934076
:1017600018F080E094E004C08091F7039091F803B2
:101770009BBD8ABD8091F9039091FA038F3F9340FE
:1017800018F080E094E004C08091F9039091FA038E
:1017900099BD88BD8091FD039091FE038F3F9340DA
:1017A00018F080E094E004C08091FD039091FE0366
:1017B0009093790080937800BF91AF919F918F9122
:1017C0004F913F912F910F900FBE0F901F90189542
:1017D0008FEE86B9E1E6F0E0808180648083089531
:1017E00016B808952FB7F894E82FF0E0EE0FFF1F1A
:1017F000E85FFB4F808191812FBF08952FB7F89448
:1018000080912204909123042FBF089590910704A2
:10181000809107049817E1F3089508951F920F929D
:101820000FB60F9211240BB60F922F933F934F9345
:101830005F936F937F938F939F93AF93BF93EF9338
:10184000FF93E091050484B195B120912204309179
:101850002304280F391F30932304209322044E2F92
:1018600050E04D30510508F04DC0FA01EA5BFF4FE2
:101870000C94740E909311048093100443C09093C1
:101880001304809312041DC09093090480930804EC
:1018900039C0909319048093180434C090931B04AA
:1018A00080931A0420C090930D0480930C042AC0E6
:1018B000909315048093140425C09093170480938B
:1018C000160480916200806411C090930B04809391
:1018D0000A0418C090931D0480931C0413C09093B5
:1018E0001F0480931E04809162008F7B80936200AE
:1018F00009C090930F0480930E0404C090932104B8
:1019000080932004809105048F5F8D3018F48093BC
:1019100005040FC010920504209122043091230485
:10192000C901880F991F37FD019690932304809376
:101930002204E09105048E2F90E08D30910598F4FB
:10194000FC01ED5AFF4F0C94740E83E40BC085E448
:1019500009C081E407C080E405C084E403C087E4D3
:1019600001C082E487B980910504811107C00E94FB
:101970000D0C809107048F5F80930704FF91EF9116
:10198000BF91AF919F918F917F916F915F914F9197
:101990003F912F910F900BBE0F900FBE0F901F9095
:1019A00018950E94E50C0C94CD0D0E94C60D58F0C0
:1019B0000E94BF0D40F029F45F3F29F00C94B60D52
:1019C00051110C94010E0C94BC0D0E94DE0D68F3B5
:1019D0009923B1F3552391F3951B550BBB27AA27E8
:1019E00062177307840738F09F5F5F4F220F331F22
:1019F000441FAA1FA9F335D00E2E3AF0E0E832D0EA
:101A000091505040E695001CCAF72BD0FE2F29D0EC
:101A1000660F771F881FBB1F261737074807AB07BE
:101A2000B0E809F0BB0B802DBF01FF2793585F4F33
:101A30003AF09E3F510578F00C94B60D0C94010ECF
:101A40005F3FE4F3983ED4F3869577956795B79515
:101A5000F7959F5FC9F7880F911D9695879597F920
:101A60000895E1E0660F771F881FBB1F6217730799
:101A70008407BA0720F0621B730B840BBA0BEE1FAE
:101A800088F7E09508950E944A0D6894B1110C946E
:101A9000010E08950E94E60D88F09F5798F0B92F27
:101AA0009927B751B0F0E1F0660F771F881F991F93
:101AB0001AF0BA95C9F714C0B13091F00E94000E27
:101AC000B1E008950C94000E672F782F8827B85F37
:101AD00039F0B93FCCF3869577956795B395D9F7EB
:101AE0003EF490958095709561957F4F8F4F9F4FF5
:101AF0000895E89409C097FB3EF490958095709501
:101B000061957F4F8F4F9F4F9923A9F0F92F96E949
:101B1000BB279395F695879577956795B795F111BE
:101B2000F8CFFAF4BB0F11F460FF1BC06F5F7F4F5B
:101B30008F4F9F4F16C0882311F096E911C077236D
:101B400021F09EE8872F762F05C0662371F096E876
:101B5000862F70E060E02AF09A95660F771F881F45
:101B6000DAF7880F9695879597F9089597F99F6703
:101B700080E870E060E008959FEF80EC0895002415
:101B80000A941616170618060906089500240A94E2
:101B900012161306140605060895092E0394000C68
:101BA00011F4882352F0BB0F40F4BF2B11F460FFF7
:101BB00004C06F5F7F4F8F4F9F4F089557FD905820
:101BC000440F551F59F05F3F71F04795880F97FB01
:101BD000991F61F09F3F79F08795089512161306BB
:101BE0001406551FF2CF4695F1DF08C016161706EA
:101BF0001806991FF1CF869571056105089408951F
:101C0000E894BB2766277727CB0197F908950E94B0
:101C10001A0E0C94CD0D0E94BF0D38F00E94C60D17
:101C200020F0952311F00C94B60D0C94BC0D1124EA
:101C30000C94010E0E94DE0D70F3959FC1F3950F79
:101C400050E0551F629FF001729FBB27F00DB11D40
:101C5000639FAA27F00DB11DAA1F649F6627B00DD0
:101C6000A11D661F829F2227B00DA11D621F739FB9
:101C7000B00DA11D621F839FA00D611D221F749FC7
:101C80003327A00D611D231F849F600D211D822F0E
:101C9000762F6A2F11249F5750409AF0F1F0882335
:101CA0004AF0EE0FFF1FBB1F661F771F881F915062
:101CB0005040A9F79E3F510580F00C94B60D0C944E
:101CC000010E5F3FE4F3983ED4F3869577956795D0
:101CD000B795F795E7959F5FC1F7FE2B880F911D8C
:101CE0009695879597F90895EE0FFF1F0024001C25
:101CF0000BBE0790F691E02D09940F931F93CF939D
:101D0000DF93CDB7DEB72E970FB6F894DEBF0FBEC8
:101D1000CDBF0D891E8986E08C831A8309838FEFDE
:101D20009FE79E838D83AE01475E5F4F6F89788DFD
:101D3000CE0101960E94AC0EEF81F885E00FF11FF5
:101D400010822E960FB6F894DEBF0FBECDBFDF9186
:101D5000CF911F910F9108952F923F924F925F92D2
:101D60006F927F928F929F92AF92BF92CF92DF92AB
:101D7000EF92FF920F931F93CF93DF93CDB7DEB710
:101D80002B970FB6F894DEBF0FBECDBF6C017B0161
:101D90008A01FC0117821682838181FFCCC1CE01AA
:101DA00001963C01F6019381F70193FD859193FF24
:101DB00081917F01882309F4BAC1853239F493FDFA
:101DC000859193FF81917F01853229F4B60190E0DE
:101DD0000E94CC10E7CF912C212C312CFFE1F31580
:101DE000D8F08B3279F038F4803279F08332A1F474
:101DF000232D20611DC08D3261F0803369F4232DC5
:101E0000216016C0832D8260382EE32DE4603E2EC3
:101E10002AC0F32DF8601DC037FC2DC020ED280F1F
:101E20002A3040F08E32B9F436FC81C1232D206473
:101E3000322E19C036FE06C08AE0989E200D11246D
:101E4000922E11C0EAE02E9E200D1124222EF32D99
:101E5000F0623F2E08C08C3621F4832D8068382E26
:101E600002C0883641F4F70193FD859193FF81917B
:101E70007F018111B3CF982F9F7D9554933028F423
:101E80000C5F1F4F9FE399830DC0833631F083377A
:101E900071F0833509F059C021C0F8018081898330
:101EA0000E5F1F4F88248394912C530113C0280187
:101EB000F2E04F0E511CF801A080B18036FE03C045
:101EC000692D70E002C06FEF7FEFC5010E94C11065
:101ED0004C018201F32DFF773F2E16C0280122E02E
:101EE000420E511CF801A080B18036FE03C0692D5E
:101EF00070E002C06FEF7FEFC5010E94B6104C0189
:101F0000F32DF0683F2E820133FC1BC0822D90E040
:101F100088169906B0F4B60180E290E00E94CC10D9
:101F20002A94F4CFF50137FC859137FE81915F014A
:101F3000B60190E00E94CC1021102A9421E0821A70
:101F400091088114910471F7E8C0843611F0893644
:101F500041F5F80137FE07C060817181828193816C
:101F60000C5F1F4F08C060817181072E000C880B29
:101F7000990B0E5F1F4FF32DFF763F2E97FF09C081
:101F800090958095709561957F4F8F4F9F4FF0682A
:101F90003F2E2AE030E0A3010E940811882E861807
:101FA00045C0853731F4232D2F7EB22E2AE030E054
:101FB00025C0932D997FB92E8F36C1F018F488353E
:101FC00079F0B5C0803719F0883721F0B0C0E92F1B
:101FD000E061BE2EB4FE0DC0FB2DF460BF2E09C023
:101FE00034FE0AC0292F2660B22E06C028E030E059
:101FF00005C020E130E002C020E132E0F801B7FE88
:1020000007C060817181828193810C5F1F4F06C080
:102010006081718180E090E00E5F1F4FA3010E94FC
:102020000811882E8618FB2DFF773F2E36FE0DC037
:10203000232D2E7FA22E891458F434FE0BC032FCBF
:1020400009C0832D8E7EA82E05C0B82CA32C03C0FA
:10205000B82C01C0B92CA4FE0FC0FE01E80DF11D83
:102060008081803321F49A2D997EA92E09C0A2FE89
:1020700006C0B394B39404C08A2D867809F0B39453
:10208000A3FC11C0A0FE06C0B21488F4280C922C48
:102090009B180EC0B21460F4B60180E290E00E947A
:1020A000CC10B394F7CFB21418F42B1802C0982CAC
:1020B000212CA4FE10C0B60180E390E00E94CC1059
:1020C000A2FE17C0A1FC03C088E790E002C088E52B
:1020D00090E0B6010CC08A2D867859F0A1FE02C0AE
:1020E0008BE201C080E2A7FC8DE2B60190E00E9485
:1020F000CC10891438F4B60180E390E00E94CC1033
:102100009A94F7CF8A94F301E80DF11D8081B6010E
:1021100090E00E94CC108110F5CF222009F442CE2D
:10212000B60180E290E00E94CC102A94F6CFF6012E
:102130008681978102C08FEF9FEF2B960FB6F894A0
:10214000DEBF0FBECDBFDF91CF911F910F91FF90EA
:10215000EF90DF90CF90BF90AF909F908F907F9047
:102160006F905F904F903F902F900895FC010590E5
:10217000615070400110D8F7809590958E0F9F1F89
:102180000895FC016150704001900110D8F78095CE
:1021900090958E0F9F1F08950F931F93CF93DF93FA
:1021A000FB01238121FD03C08FEF9FEF2CC022FF95
:1021B00016C046815781248135814217530744F464
:1021C000A081B1819D012F5F3F4F318320838C938C
:1021D000268137812F5F3F4F3783268314C08B01C1
:1021E000EC01FB010084F185E02D0995892BE1F6D6
:1021F000D80116968D919C911797019617969C93EE
:102200008E931697CE01DF91CF911F910F91089574
:10221000FA01AA27283051F1203181F1E8946F9317
:102220006E7F6E5F7F4F8F4F9F4FAF4FB1E03ED0BD
:10223000B4E03CD0670F781F891F9A1FA11D680F5B
:10224000791F8A1F911DA11D6A0F711D811D911D8E
:10225000A11D20D009F468943F912AE0269F112403
:102260003019305D3193DEF6CF010895462F477067
:10227000405D4193B3E00FD0C9F7F6CF462F4F70C2
:10228000405D4A3318F0495D31FD4052419302D020
:10229000A9F7EACFB4E0A6959795879577956795C6
:1022A000BA95C9F700976105710508959B01AC01C6
:1022B0000A2E06945795479537952795BA95C9F7ED
:1022C000620F731F841F951FA01D0895F894FFCF00
:1022D0000300000000000400005F00000E00070083
:1022E00007001F147F147F141F242A7F2A121F2324
:1022F000130864621F36495522500600050300008A
:102300000E001C2241000E0041221C001F14083E3A
:1023100008141F08083E08080600A06000000F0807
:10232000080808080600606000000E00601C03003A
:102330001F3E5149453E0E00427F40001F42615101
:1023400049461D2141454B311F1814127F101D278E
:1023500045454539173C4A4949301E017109050375
:102360001D36494949361D064949291E060036369B
:1023700000000600AC6C00000F08142241000F148E
:10238000141414141E00412214081F0201510906DE
:102390001F324979413E1F7C1211127C177F494937
:1023A0004936173E414141221F7F4141221C177F80
:1023B00049494941177F09090901173E4149497AAD
:1023C000177F0808087F0E00417F41001F20404111
:1023D0003F011F7F08142241177F404040401F7F6C
:1023E000020C027F1F7F0408107F173E4141413ECF
:1023F000177F09090906173E414141BE1D7F091992
:1024000029461746494949311F01017F0101173FFC
:102410004040403F1F1F2040201F1F3F4038403F8B
:102420001F63140814631F07087008071F615149D0
:1024300045430E007F4141000E00031C60000E006A
:1024400041417F000E04020102041F404040404011
:102450000C0000030400172054545478177F48449C
:1024600044381738444444201D384444487F1738C2
:102470005454541817087E0901021718A4A4A4780C
:10248000177F080404780E00447D40000D408084CE
:102490007D000F7F102844000E00417F40001F7C0C
:1024A00004780478177C08040478173844444438C6
:1024B00017FC242424181718242424FC177C08044F
:1024C000040817485454542017043F4440201D3C2E
:1024D0004040207C1F1C2040201C1F3C4030403CC2
:1024E0001F4428102844171CA0A0A07C1F4464543B
:1024F0004C440E00083641000400007F00000E002E
:10250000413608001F02010204021FAA55AA55AA5B
:0A251000537065656400253369000F
:00000001FF
