:100000000C946D000C948C000C948C000C948C005F
:100010000C948C000C948C000C948C000C948C0030
:100020000C948C000C948C000C948C000C948C0020
:100030000C948C000C948C000C942E0B0C948C0063
:100040000C948C000C947A020C948C000C948C0010
:100050000C948C000C94EA0B0C948C000C948C0087
:100060000C948C000C948C000C948C000C948C00E0
:100070000C948C000C948C000C948C000C948C00D0
:100080000C948C000C948C000C948C00160C1B0CA3
:10009000200C250C2A0C2F0C340C390C410C460C6E
:1000A0004B0C550C5A0C810C830C8D0C810C830C61
:1000B000850C870C890C850C870C890C8B0C8D0C9E
:1000C000332E3300556E76657273696F6E656420EA
:1000D0006469726563746F72790011241FBECFEF7B
:1000E000D0E1DEBFCDBF13E0A0E0B1E0E2E4FFE18C
:1000F00000E00BBF02C007900D92AE34B107D9F7F4
:1001000024E0AEE4B3E001C01D92A832B207E1F7EB
:100110000E94D8000C949F0F0C940000893C91051C
:1001200034F48C34910534F481E090E0089582E059
:1001300090E0089583E090E008950F931F93CF938C
:100140008B010E948E00C82F0230110599F044F4F3
:100150000115110569F001301105C1F466E010C008
:100160000330110561F00430110581F462E008C02C
:1001700067E006C065E00E94BA0A64E001C063E07F
:100180008C2FCF911F910F910C94BA0ACF911F9190
:100190000F91089578940E948F0A0E9473020E9422
:1001A000B20A81E00E94D7010E940F050C94720AE6
:1001B000CF93DF93CDB7DEB764970FB6F894DEBF69
:1001C0000FBECDBF0E94CA001A821982FE0133966B
:1001D00082E1DF011D928A95E9F79AE4A92E93E066
:1001E000B92E32974F0180E00E948C0360E080E0DE
:1001F0000E945A0380E493E00E94C4040E942E09E6
:100200008BEBC82E83E0D82E10E0E12CF12CD60128
:1002100011960C91B2E0CB0ED11CB701802F90E06B
:100220000E949D001F920F93BF92AF929F928F9258
:100230000E94B60C6AE0812F0E945A03C4010E94FA
:10024000C404EFEFEE1AFE0A195E0F900F900F90A4
:100250000F900F900F901337D1F688EC90E00E942A
:100260004602C1CF90914E03892790916500382FA7
:100270003170292F2E7F91E09327922B9093650068
:10028000909165009D7F311102C020E001C022E005
:10029000922B9093650090916500977F81FD02C03D
:1002A00080E001C088E0892B809365008091650023
:1002B0008F7E809365008FEF8ABB6BBB85E08A954C
:1002C000F1F700008091650084608093650085E00F
:1002D0008A95F1F70000809165008B7F809365001F
:1002E00085E08A95F1F700001BBA1ABA089590913B
:1002F0004E03892790916500382F3170292F2E7F6A
:1003000091E09327922B90936500909165009D7FDB
:10031000311102C020E001C022E0922B90936500D1
:1003200090916500977F81FD02C080E001C088E068
:10033000892B8093650080916500806180936500C2
:100340001ABA85E08A95F1F7000080916500846013
:100350008093650095E19A95F1F7000089B390913B
:1003600065009B7F9093650095E09A95F1F70000FA
:1003700008950F931F93CF9390914F03911102C053
:1003800080E011C0C82FC17000E010E08C2F0E94E7
:1003900077010F5F1F4F87FF05C00F3F8FEF1807D3
:1003A000A9F7EECF81E0CF911F910F910895CF93E0
:1003B000C82F8FEF80934F0310924E0380916400FB
:1003C0008860809364008091640080618093640001
:1003D00080916400846080936400809164008160F7
:1003E0008093640080916400826080936400B89A76
:1003F0001ABA80916500877F8093650080916500BF
:100400008F7E80936500809165008B7F809365006F
:10041000809165008E7F80936500809165008D7F5F
:1004200080936500C098979B09C097988FE99FE0DB
:100430000197F1F700C00000979A06C08FE99FE08E
:100440000197F1F700C00000C09A80E00E94B90156
:10045000882391F081E00E94B901882351F0C330D4
:1004600031F4C0934F0381E080934E0305C082E0D6
:1004700001C081E080934F0380914F038F3F11F4BF
:1004800010924F0380914F03CF910895009741F050
:10049000EFE9FFE03197F1F700C000000197F6CFD8
:1004A00008958FB990918B03892780938B030895CA
:1004B00010928C0380936D0391E0980F90936F03DB
:1004C00096E990938B0390938D03F894B09903C0B1
:1004D00078940000FACF90EC9DB90E945102779A6F
:1004E000789480E00895B898C098BB9AC39A80E049
:1004F0000C9458021F920F920FB60F9211240BB654
:100500000F922F933F934F935F936F937F938F93AC
:100510009F93AF93BF93EF93FF938FB190918D0310
:10052000982790938D03E0918C03E11116C080937E
:100530006B038C3130F010926D0310926B0381E0ED
:1005400009C0482F50E020916F0330E04217530755
:10055000FCF08F5F80936F031BC02E2F30E0409123
:100560006B0350E0421753072CF0D901A159BC4F3F
:100570008C930EC0215031094217530749F4992337
:1005800039F080916C038F5F80936C0310926B0342
:1005900080916D03E81728F4F0E0E05BFC4F808168
:1005A0000AC0E81303C080918B0305C080916F03DC
:1005B000E81748F48FEF0E94510280918C038F5FFF
:1005C00080938C0311C0B898C0981DB8B898C09893
:1005D00080916E038F5F80936E03789480916B039C
:1005E0000E94CD080E945802FF91EF91BF91AF91F8
:1005F0009F918F917F916F915F914F913F912F913B
:100600000F900BBE0F900FBE0F901F901895CF93B9
:10061000DF93C82FD8EBD60F883000F580E00E941A
:10062000B9016D2F80E00E94320180E00E94B90183
:100630006C2F660F660F660F605C80E00E943201CF
:10064000C2E9D3E082E00E94B901699182E00E9490
:10065000320183E0CA39D807A9F720C0C85081E029
:100660000E94B9016D2F81E00E94320181E00E9459
:10067000B901CC0FCC0FCC0F60E46C0F81E00E946D
:100680003201C2E9D3E083E00E94B901699183E0BD
:100690000E94320183E0CA39D807A9F7DF91CF91D0
:1006A000089580919103089580919A03089580930D
:1006B0008E030895CF93DF93D82FC62F8093910395
:1006C00060939A0380E00E94B90181E00E94B90121
:1006D000C695C695C695C8546C2F80E00E9432011D
:1006E0006C2F81E00E94320180E00E94B90181E01C
:1006F0000E94B90160E4D13428F080E00E94320108
:100700006D2F05C06D0F80E00E94320160E481E032
:10071000DF91CF910C9432011F93CF93DF93182F69
:10072000C8EB80E00E94B90181E00E94B9016C2F02
:1007300080E00E9432016C2F81E00E943201D0E4FF
:1007400082E00E94B90183E00E94B901612F82E03A
:100750000E943201612F83E00E943201D15081F763
:10076000CF5FC03CF1F680E00E94B90181E00E94B9
:10077000B90168EB80E00E94320168EB81E0DF9113
:10078000CF911F910C9432010F931F93CF93DF935E
:10079000D82FC62F8091910387FD37C011E0803498
:1007A00008F410E0812F0E94B90102E0010F802FB0
:1007B0000E947701802F0E94770190918E0392FF13
:1007C00002C0D0959B7FDC23911102C0C82F04C0CA
:1007D000913021F4C095C823CD2B02C0C82FCD275E
:1007E000812F0E94B901609191036064812F0E9462
:1007F0003201812F0E94B9016C2F802F0E9432019B
:10080000809191038F5F80939103DF91CF911F912E
:100810000F91089590EE980F903608F080E880527E
:1008200096E0899FF0011124E050FF4F9081809164
:100830009003811101C09FE125E080E090FD8F5F72
:1008400096952150D9F708957F928F929F92AF92FB
:10085000BF92CF92DF92EF92FF920F931F93CF93AD
:10086000DF93C62F90EE980F903608F080E8805204
:1008700026E0829FC0011124FC01EF5FFE4F7F0143
:10088000FC01E050FF4F908080919003811102C0E5
:100890009FE1992EAC2E0C2E000CBB086FEF70E080
:1008A0006B010C2E01C0CC0C0A94EAF78C2C0027AB
:1008B00011270A191B09002E02C0759567950A9425
:1008C000E2F7D62F85E0782E90FE15C0F7018081E3
:1008D000C7FD07C0682D0A2C01C0880F0A94EAF7EB
:1008E00008C090E0002E02C0959587950A94E2F723
:1008F0006D2F0E94C4039694FFEFEF1AFF0A7A94BB
:100900007110E2CFC7FD02C06C2D07C06FEF70E021
:1009100002C0759567950A95E2F780E0DF91CF9167
:100920001F910F91FF90EF90DF90CF90BF90AF900D
:100930009F908F907F900C94C4031F93CF93DF936D
:10094000D82F10919103C0919A03C7706C2F0E9409
:100950002404CC23A9F060919A03685F812F0E9440
:100960005A0368EF6C0F8D2F0E94240460919A0344
:10097000685080919103DF91CF911F910C945A039D
:10098000DF91CF911F910895CF93DF93EC0189916F
:10099000882319F00E949D04FACFDF91CF9108952A
:1009A0000F931F93CF938C01C0E0F80181918F01C9
:1009B000882331F00E940A048C0FC1E0C80FF5CFE4
:1009C0008C2FCF911F910F910895CF93DF93EC015E
:1009D000CE01FE012491222331F02196FC01849165
:1009E0000E949D04F5CFDF91CF9108950F931F933F
:1009F000CF938C01C0E0C801F8012491222351F06B
:100A00000F5F1F4FFC0184910E940A048C0FC1E00C
:100A1000C80FF1CF8C2FCF911F910F91089580E0D7
:100A20000E94B9016FE380E00E94320180E00E94E1
:100A3000B90160EC80E00E94320180E00E94B901BF
:100A400060E480E00E94320180E00E94B90168EB1E
:100A500080E00E94320181E00E94B9016FE381E0F1
:100A60000E94320181E00E94B90160EC81E00E94A5
:100A7000320181E00E94B90160E481E00E9432010C
:100A800081E00E94B90168EB81E00E94320180E0C0
:100A90000E948C0381E080938E03089580939003DD
:100AA0000895809190030895CF93DF9390919A03D6
:100AB0009770C1E001C0CC0F9A95EAF7D82FDD23DB
:100AC00031F06C2F8C2F0E94C403D150F8CFDF91EE
:100AD000CF910895AF92BF92CF92DF92EF92FF92A3
:100AE0000F931F93CF93DF93B82EC62FE0909103FF
:100AF00010919A03812F8770DFEF01C0DD0F8A9577
:100B0000EAF788E0A82ECC24CA94D12CCC2321F17A
:100B1000812F87700A2D081BC01748F4802F8C1B6B
:100B2000960102C0359527958A95E2F7D223FB2CD2
:100B3000FF2031F06D2F8D2F0E94C403FA94F8CF5F
:100B40008C2F0C1708F4802FC81B180F612F8E2DC7
:100B50000E945A03DFEFDACFDF91CF911F910F91FF
:100B6000FF90EF90DF90CF90BF90AF900895682FE7
:100B700081E00C946A052F923F924F925F926F92A0
:100B80007F928F929F92AF92BF92CF92DF92EF921D
:100B9000FF920F931F93CF93DF93482ED62F5A01C6
:100BA0003090910380909A03882D87709FEF992E43
:100BB00001C0990C8A95EAF7242D30E0C90101970C
:100BC00097FD079623E0959587952A95E1F7C1E073
:100BD000C80FEC2EF12C670133E0CC0CDD1C3A95EC
:100BE000E1F7512C48E0242EDD2309F456C0882D6E
:100BF0008770722C781AD71550F4872D8D1B2FEF24
:100C000030E002C0359527958A95E2F79222052DAE
:100C1000070DC09F80011124612C641481F1862D81
:100C2000877059F0E82FF0E0EE56FC4F8081692D77
:100C300089210E94C4036394F0CF962D96959695D2
:100C40009695F801E90FF11DEC19FD09EA0DFB1D60
:100C500028E030E04081A2E9B3E09C91969540FD08
:100C600090689C93469511966AE973E06A177B0732
:100C7000A1F7EE0DFF1D2150310961F7D3CF8D2F64
:100C80007D1608F4872DD81B880E580E682D832DED
:100C90000E945A0399249A94A7CFDF91CF911F9174
:100CA0000F91FF90EF90DF90CF90BF90AF909F900B
:100CB0008F907F906F905F904F903F902F9008950E
:100CC0002F923F924F925F926F927F928F929F925C
:100CD000AF92BF92CF92DF92EF92FF920F931F934A
:100CE000CF93DF93482ED62F4A0130909103009185
:100CF0009A03802F87701FEF01C0110F8A95EAF7C2
:100D0000242D30E0C901019797FD079623E09595C2
:100D100087952A95E1F7C1E0C80FCC2ED12C56015A
:100D200033E0AA0CBB1C3A95E1F7512C48E0242E85
:100D3000DD2309F455C0802F8770722C781AD715DF
:100D400050F4872D8D1B2FEF30E002C0359527958D
:100D50008A95E2F71223E52CE70CCE9D7001112451
:100D6000612C641481F1862D877059F0E82FF0E032
:100D7000EE56FC4F8081612F81230E94C40363944F
:100D8000F0CF962D969596959695F701E90FF11D62
:100D9000EA19FB09E80DF91D28E030E04491A2E9C9
:100DA000B3E09C91969540FD90689C934695119672
:100DB0006AE973E06A177B07A1F7EC0DFD1D21506E
:100DC000310961F7D3CF8D2F7D1608F4872DD81BFD
:100DD000080F580E602F832D0E945A031FEFA8CFD3
:100DE000DF91CF911F910F91FF90EF90DF90CF9007
:100DF000BF90AF909F908F907F906F905F904F903B
:100E00003F902F90089590919A03977021E030E0E1
:100E100001C0220F9A95EAF7882311F0622F01C0D2
:100E200060E0822F0C94C403BF92CF92DF92EF92C6
:100E3000FF920F931F93CF93DF93182F062FD0911C
:100E4000910380919A03D1130FC0861720F4962F37
:100E5000981B892F06C0C82FC61B812F0E945A03DA
:100E60008C2F0E94B7055AC0F82E68130DC0D117F9
:100E700018F4812F8D1B05C0D11B812F0E945A03AE
:100E80008D2F0E9454054AC01D1728F4DD2ED11A5B
:100E9000CC24CA9409C0D11728F4D12EDD1ACC2451
:100EA000C39402C0C12CD12C081728F4C82FC01B32
:100EB000BB24BA9409C0801728F4C02FC81BBB24D8
:100EC000B39402C0B12CC0E081E00E940307CD15AD
:100ED00098F4ED2CE694E194EC0EDC0D1E1414F461
:100EE000ED18FB0C6F2D8D2F0E945A0381E00E949C
:100EF00003071D13F1CF12C0EC2EE694E194ED0C24
:100F0000FB0C1E1414F4EC1ADC0D6F2D8D2F0E94B7
:100F10005A0381E00E9403070F11F1CF602F812F48
:100F2000DF91CF911F910F91FF90EF90DF90CF90C5
:100F3000BF900C945A0380E00E948C0310928F03A0
:100F400010929B030895CF9310929003C0E060919C
:100F50008F03660F660F660F8C2F0E945A0380E284
:100F60000E949D04CA5FCE3791F7CF9108958631D4
:100F700030F4683020F460938F0380939B030895CE
:100F800080919B03089580918F030895CF92DF9203
:100F9000EF92FF920F931F93CF93DF93C9EB2AE950
:100FA000C22E23E0D22E10E0D0E007E40C0FD830A0
:100FB00050F580E00E94B9016C2F80E00E94320160
:100FC00080E00E94B90160E4610F80E00E9432017C
:100FD00082E00E94770192E9E92E93E0F92E82E007
:100FE0000E947701F70181937F01FAE9EF16F3E0A0
:100FF000FF06A9F7602F8D2F0E940703DF5F185FA0
:10100000D031A9F61FC081E00E94B9016C2F81E0A8
:101010000E94320181E00E94B901612F81E00E94AB
:10102000320183E00E94770182E9E82E83E0F82E06
:1010300083E00E947701F70181937F01CE16DF06DE
:10104000B9F7D8CFCF5FC03C09F0ADCFE2E9F3E00C
:101050008AE993E011928E179F07E1F7C0E067E0FD
:101060008C2F0E940703CF5FC031C9F780918F0397
:10107000882319F0815080938F03DF91CF911F91C6
:101080000F91FF90EF90DF90CF900895CF938A302B
:1010900069F410929B0380918F038F5F80938F037D
:1010A000883061F581E0CF910C94C6078D3031F125
:1010B000C82F80919B03853160F010929B03809133
:1010C0008F038F5F80938F03883019F481E00E9433
:1010D000C60760918F03660F660F660F80919B03B2
:1010E000982F990F890F880F0E945A038C2F0E9406
:1010F0009D0480919B038F5F80939B03CF91089504
:10110000109290030C9446080F931F93CF93DF9394
:1011100010929003EC018C01060F171FC017D10726
:1011200021F089910E944608F9CFDF91CF911F915C
:101130000F910895CF93DF9310929003EC01899162
:10114000882319F00E944608FACFDF91CF910895C5
:10115000CF93DF9310929003FC018491EF012196CD
:10116000882321F00E944608FE01F7CFDF91CF913E
:101170000895789420E137E297E0899FF0011124E7
:10118000EE55FC4F2150310919F080818F3FD1F786
:1011900081E0232B09F480E008959091F6039F5F8E
:1011A0009093F6038B3141F4E0E7F3E0A9EDB3E06F
:1011B00001900D928A95E1F78FEF80935E03809303
:1011C0005703809350039091A2039F3F69F097E0EB
:1011D000E2EAF3E0A0E5B3E001900D929A95E1F721
:1011E0008093A20387E001C080E09091A9039F3F14
:1011F00079F0A82FB0E0A05BBC4F97E0E9EAF3E0FC
:1012000001900D929A95E1F79FEF9093A903895F62
:101210009091B0039F3F79F0A82FB0E0A05BBC4F46
:1012200087E0E0EBF3E001900D928A95E1F78FEF14
:101230008093B00304C0811102C087E0089585E166
:10124000089527E0829FC0011124FC01EE55FC4F58
:1012500081E090819F3F09F480E00895F894ABEB22
:10126000B3E0E9EDF3E0818190E0982F88272081B9
:10127000820F911D11969C938E93838190E0982FFD
:1012800088272281820F911D13969C938E9312972B
:10129000858190E0982F88272481820F911D1596D3
:1012A0009C938E931497878190E0982F88272681AE
:1012B000820F911D17969C938E931697818590E0CF
:1012C000982F88272085820F911D19969C938E93C5
:1012D00018977894F894228580919E0390919F03AB
:1012E000AC01420F511D9385892F90E0982F8827DC
:1012F000840F951F9093B8038093B7032485809142
:101300009C0390919D03AC01420F511D9585892F3F
:1013100090E0982F8827840F951F9093D003809397
:10132000CF03878590E0982F88272685820F911D0F
:101330009093F8038093F703818990E0982F882792
:101340002089820F911D9093CE038093CD038389D2
:1013500090E0982F88272289820F911D9093A103F6
:101360008093A003858990E0982F88272489820F95
:10137000911D9093D8038093D7037894F894808D2F
:1013800090E0982F88272789820F911D9093BA03A8
:101390008093B903828D90E0982F8827218D820F4A
:1013A000911D9093F5038093F403789481E0089560
:1013B000F89481E08093A20378940895F8948AE0E9
:1013C0008093A203789481E00895F894E2EAF3E030
:1013D00025E020838183928363837483789481E002
:1013E0000895F894E2EAF3E022E020838183928377
:1013F00063837483789481E0089520919E033091F3
:101400009F03821B930B20919C0330919D03621BD1
:10141000730BF894E2EAF3E023E020838183928364
:101420006383748345835683789481E00895F894A8
:10143000E2EAF3E024E02083818392836383748370
:1014400045835683789481E008951F93CF93DF936B
:10145000182FD62FC42F82E00E94B908F894E2EA30
:10146000F3E086E086871787D08BC18B789481E084
:10147000DF91CF911F91089581E00895F894E9EDEF
:10148000F3E0258530E0322F22274485240F311DDB
:10149000438550E0542F4427E2854E0F511DFC0137
:1014A000E41BF50BF0939F03E0939E03AB01421BFB
:1014B000530B50939D0340939C039093B8038093E8
:1014C000B7037093D0036093CF03789481E00895BD
:1014D00081E00E94B908F89488E08093A903789489
:1014E00081E0089581E00E94B908F89487E0809334
:1014F000A903789481E00895CF93DF93D82FC92F63
:1015000081E00E94B908F894E2EAF3E089E0878379
:10151000D087C187789481E0DF91CF910895CF93F0
:10152000CFB7F8948F9A97988FE39CE90197F1F7DA
:1015300000C00000979A9FEF21EE84E09150204078
:101540008040E1F700C000000E94C40BCFBFCF91E4
:10155000089578948CE00E94CE0B9093FA038093C8
:10156000F9030895BF9AC79ABD9ABE9A8FEF82B9C0
:1015700084BB089595B321E030E0062E01C0220F10
:101580000A94EAF780FF02C0292B02C02095292384
:1015900025BB23B181FF08C081E090E001C0880F26
:1015A0006A95EAF7822B08C081E090E001C0880FBD
:1015B0006A95EAF78095822383B90895909302048F
:1015C000809301040895809101049091020408958C
:1015D0009093FC038093FB0308958091FB0390910B
:1015E000FC0308959093FE038093FD03089580917A
:1015F000FD039091FE0308951092040410920304D9
:10160000109200041092FF03109205041092060439
:1016100010920704109208041092FC031092FB032E
:101620001092FE031092FD038FEF93E0909302045B
:1016300080930104C598C698BD9ABE9ABF9AC79A6E
:101640001DBC1CBC8AEA8FBD82E18EBD80E094E0A7
:1016500097BD86BD87B7846087BF08951F920F929C
:101660000FB60F9211242F933F934F938F939F9315
:10167000AF93BF9380910304909104049C01285E72
:101680003F4F283E43E0340728F43093040420936E
:1016900003040FC0805D934090930404809303047F
:1016A0008091FF0390910004019690930004809331
:1016B000FF038091FF039091000401969093000432
:1016C0008093FF038091FF0390910004883E934034
:1016D000E8F08091FF0390910004885E934090931E
:1016E00000048093FF038091050490910604A0916B
:1016F0000704B09108040196A11DB11D8093050453
:1017000090930604A0930704B09308048091FB0310
:101710009091FC038F3F934018F080E094E004C068
:101720008091FB039091FC039BBD8ABD8091FD03DA
:101730009091FE038F3F934018F080E094E004C046
:101740008091FD039091FE0399BD88BD80910104B5
:10175000909102048F3F934018F080E094E004C021
:101760008091010490910204909379008093780015
:10177000BF91AF919F918F914F913F912F910F907A
:101780000FBE0F901F9018958FEE86B9E1E6F0E03E
:10179000808180648083089516B808952FB7F894E7
:1017A000E82FF0E0EE0FFF1FE45FFB4F8081918197
:1017B0002FBF08952FB7F8948091260490912704A5
:1017C0002FBF089590910B0480910B049817E1F3BB
:1017D000089508951F920F920FB60F9211240BB621
:1017E0000F922F933F934F935F936F937F938F93BA
:1017F0009F93AF93BF93EF93FF93E091090484B15C
:1018000095B12091260430912704280F391F309379
:101810002704209326044E2F50E04D30510508F048
:101820004DC0FA01EA5BFF4F0C94AD0C9093150488
:101830008093140443C090931704809316041DC032
:1018400090930D0480930C0439C090931D048093F1
:101850001C0434C090931F0480931E0420C09093F6
:101860001104809310042AC09093190480931804E3
:1018700025C090931B0480931A04809162008064B9
:1018800011C090930F0480930E0418C0909321040C
:101890008093200413C090932304809322048091AA
:1018A00062008F7B8093620009C090931304809341
:1018B000120404C0909325048093240480910904A9
:1018C0008F5F8D3018F4809309040FC010920904C3
:1018D0002091260430912704C901880F991F37FDF4
:1018E00001969093270480932604E09109048E2F9B
:1018F00090E08D30910598F4FC01ED5AFF4F0C9467
:10190000AD0C83E40BC085E409C081E407C080E42A
:1019100005C084E403C087E401C082E487B98091F4
:101920000904811107C00E94E90B80910B048F5FAD
:1019300080930B04FF91EF91BF91AF919F918F9195
:101940007F916F915F914F913F912F910F900BBEBF
:101950000F900FBE0F901F901895EE0FFF1F0024E1
:10196000001C0BBE0790F691E02D09940F931F9376
:10197000CF93DF93CDB7DEB72E970FB6F894DEBFC7
:101980000FBECDBF0D891E8986E08C831A83098323
:101990008FEF9FE79E838D83AE01475E5F4F6F8918
:1019A000788DCE0101960E94E50CEF81F885E00F5D
:1019B000F11F10822E960FB6F894DEBF0FBECDBF7A
:1019C000DF91CF911F910F9108952F923F924F92E7
:1019D0005F926F927F928F929F92AF92BF92CF92BF
:1019E000DF92EF92FF920F931F93CF93DF93CDB7C8
:1019F000DEB72B970FB6F894DEBF0FBECDBF6C01DC
:101A00007B018A01FC0117821682838181FFCCC190
:101A1000CE0101963C01F6019381F70193FD85917A
:101A200093FF81917F01882309F4BAC1853239F48B
:101A300093FD859193FF81917F01853229F4B60151
:101A400090E00E94050FE7CF912C212C312CFFE173
:101A5000F315D8F08B3279F038F4803279F0833294
:101A6000A1F4232D20611DC08D3261F0803369F413
:101A7000232D216016C0832D8260382EE32DE46073
:101A80003E2E2AC0F32DF8601DC037FC2DC020ED7E
:101A9000280F2A3040F08E32B9F436FC81C1232D54
:101AA0002064322E19C036FE06C08AE0989E200DB2
:101AB0001124922E11C0EAE02E9E200D1124222E18
:101AC000F32DF0623F2E08C08C3621F4832D806800
:101AD000382E02C0883641F4F70193FD859193FFBB
:101AE00081917F018111B3CF982F9F7D95549330C1
:101AF00028F40C5F1F4F9FE399830DC0833631F0AC
:101B0000833771F0833509F059C021C0F801808115
:101B100089830E5F1F4F88248394912C530113C037
:101B20002801F2E04F0E511CF801A080B18036FE72
:101B300003C0692D70E002C06FEF7FEFC5010E9406
:101B4000FA0E4C018201F32DFF773F2E16C02801BB
:101B500022E0420E511CF801A080B18036FE03C085
:101B6000692D70E002C06FEF7FEFC5010E94EF0E9C
:101B70004C01F32DF0683F2E820133FC1BC0822DF7
:101B800090E088169906B0F4B60180E290E00E94D9
:101B9000050F2A94F4CFF50137FC859137FE81912A
:101BA0005F01B60190E00E94050F21102A9421E008
:101BB000821A91088114910471F7E8C0843611F0FB
:101BC000893641F5F80137FE07C060817181828155
:101BD00093810C5F1F4F08C060817181072E000C3C
:101BE000880B990B0E5F1F4FF32DFF763F2E97FF4B
:101BF00009C090958095709561957F4F8F4F9F4F4D
:101C0000F0683F2E2AE030E0A3010E94410F882EA9
:101C1000861845C0853731F4232D2F7EB22E2AE059
:101C200030E025C0932D997FB92E8F36C1F018F47E
:101C3000883579F0B5C0803719F0883721F0B0C009
:101C4000E92FE061BE2EB4FE0DC0FB2DF460BF2E67
:101C500009C034FE0AC0292F2660B22E06C028E033
:101C600030E005C020E130E002C020E132E0F801C0
:101C7000B7FE07C060817181828193810C5F1F4F25
:101C800006C06081718180E090E00E5F1F4FA3016C
:101C90000E94410F882E8618FB2DFF773F2E36FEBF
:101CA0000DC0232D2E7FA22E891458F434FE0BC0B4
:101CB00032FC09C0832D8E7EA82E05C0B82CA32C23
:101CC00003C0B82C01C0B92CA4FE0FC0FE01E80D62
:101CD000F11D8081803321F49A2D997EA92E09C0AF
:101CE000A2FE06C0B394B39404C08A2D867809F08E
:101CF000B394A3FC11C0A0FE06C0B21488F4280C53
:101D0000922C9B180EC0B21460F4B60180E290E0F1
:101D10000E94050FB394F7CFB21418F42B1802C029
:101D2000982C212CA4FE10C0B60180E390E00E9404
:101D3000050FA2FE17C0A1FC03C088E790E002C017
:101D400088E590E0B6010CC08A2D867859F0A1FE96
:101D500002C08BE201C080E2A7FC8DE2B60190E0F8
:101D60000E94050F891438F4B60180E390E00E94C8
:101D7000050F9A94F7CF8A94F301E80DF11D808145
:101D8000B60190E00E94050F8110F5CF222009F4E2
:101D900042CEB60180E290E00E94050F2A94F6CF71
:101DA000F6018681978102C08FEF9FEF2B960FB6C9
:101DB000F894DEBF0FBECDBFDF91CF911F910F9181
:101DC000FF90EF90DF90CF90BF90AF909F908F905B
:101DD0007F906F905F904F903F902F900895FC01FF
:101DE0000590615070400110D8F7809590958E0F46
:101DF0009F1F0895FC016150704001900110D8F7B9
:101E0000809590958E0F9F1F08950F931F93CF93EA
:101E1000DF93FB01238121FD03C08FEF9FEF2CC0D7
:101E200022FF16C04681578124813581421753070E
:101E300044F4A081B1819D012F5F3F4F3183208306
:101E40008C93268137812F5F3F4F3783268314C0C1
:101E50008B01EC01FB010084F185E02D0995892BB4
:101E6000E1F6D80116968D919C91179701961796D9
:101E70009C938E931697CE01DF91CF911F910F9176
:101E80000895FA01AA27283051F1203181F1E89410
:101E90006F936E7F6E5F7F4F8F4F9F4FAF4FB1E05D
:101EA0003ED0B4E03CD0670F781F891F9A1FA11D58
:101EB000680F791F8A1F911DA11D6A0F711D811D59
:101EC000911DA11D20D009F468943F912AE0269F1E
:101ED00011243019305D3193DEF6CF010895462F7D
:101EE0004770405D4193B3E00FD0C9F7F6CF462F5E
:101EF0004F70405D4A3318F0495D31FD40524193C7
:101F000002D0A9F7EACFB4E0A69597958795779583
:101F10006795BA95C9F700976105710508959B010A
:101F2000AC010A2E06945795479537952795BA9593
:101F3000C9F7620F731F841F951FA01D0895F894A1
:021F4000FFCFD1
:101F42000300000000000400005F00000E00070014
:101F520007001F147F147F141F242A7F2A121F23B5
:101F6200130864621F36495522500600050300001B
:101F72000E001C2241000E0041221C001F14083ECC
:101F820008141F08083E08080600A06000000F0899
:101F9200080808080600606000000E00601C0300CC
:101FA2001F3E5149453E0E00427F40001F42615193
:101FB20049461D2141454B311F1814127F101D2720
:101FC20045454539173C4A4949301E017109050307
:101FD2001D36494949361D064949291E060036362D
:101FE20000000600AC6C00000F08142241000F1420
:101FF200141414141E00412214081F020151090670
:102002001F324979413E1F7C1211127C177F4949C8
:102012004936173E414141221F7F4141221C177F11
:1020220049494941177F09090901173E4149497A3E
:10203200177F0808087F0E00417F41001F204041A2
:102042003F011F7F08142241177F404040401F7FFD
:10205200020C027F1F7F0408107F173E4141413E60
:10206200177F09090906173E414141BE1D7F091923
:1020720029461746494949311F01017F0101173F8E
:102082004040403F1F1F2040201F1F3F4038403F1D
:102092001F63140814631F07087008071F61514962
:1020A20045430E007F4141000E00031C60000E00FC
:1020B20041417F000E04020102041F4040404040A3
:1020C2000C0000030400172054545478177F48442E
:1020D20044381738444444201D384444487F173854
:1020E2005454541817087E0901021718A4A4A4789E
:1020F200177F080404780E00447D40000D40808460
:102102007D000F7F102844000E00417F40001F7C9D
:1021120004780478177C0804047817384444443857
:1021220017FC242424181718242424FC177C0804E0
:10213200040817485454542017043F4440201D3CBF
:102142004040207C1F1C2040201C1F3C4030403C53
:102152001F4428102844171CA0A0A07C1F446454CC
:102162004C440E00083641000400007F00000E00BF
:10217200413608001F02010204021FAA55AA55AAED
:0E21820044697374616E7A656E0025336900DE
:00000001FF
